{
  "contracts/BotManager.sol": {
    "BotManager": {
      "abi": [
        {
          "inputs": [
            {
              "internalType": "address",
              "name": "_pool",
              "type": "address"
            },
            {
              "internalType": "address",
              "name": "_manager",
              "type": "address"
            }
          ],
          "stateMutability": "nonpayable",
          "type": "constructor"
        },
        {
          "inputs": [],
          "name": "AccessControlBadConfirmation",
          "type": "error"
        },
        {
          "inputs": [
            {
              "internalType": "address",
              "name": "account",
              "type": "address"
            },
            {
              "internalType": "bytes32",
              "name": "neededRole",
              "type": "bytes32"
            }
          ],
          "name": "AccessControlUnauthorizedAccount",
          "type": "error"
        },
        {
          "inputs": [],
          "name": "SliceOutOfBounds",
          "type": "error"
        },
        {
          "anonymous": false,
          "inputs": [
            {
              "indexed": true,
              "internalType": "bytes32",
              "name": "role",
              "type": "bytes32"
            },
            {
              "indexed": true,
              "internalType": "bytes32",
              "name": "previousAdminRole",
              "type": "bytes32"
            },
            {
              "indexed": true,
              "internalType": "bytes32",
              "name": "newAdminRole",
              "type": "bytes32"
            }
          ],
          "name": "RoleAdminChanged",
          "type": "event"
        },
        {
          "anonymous": false,
          "inputs": [
            {
              "indexed": true,
              "internalType": "bytes32",
              "name": "role",
              "type": "bytes32"
            },
            {
              "indexed": true,
              "internalType": "address",
              "name": "account",
              "type": "address"
            },
            {
              "indexed": true,
              "internalType": "address",
              "name": "sender",
              "type": "address"
            }
          ],
          "name": "RoleGranted",
          "type": "event"
        },
        {
          "anonymous": false,
          "inputs": [
            {
              "indexed": true,
              "internalType": "bytes32",
              "name": "role",
              "type": "bytes32"
            },
            {
              "indexed": true,
              "internalType": "address",
              "name": "account",
              "type": "address"
            },
            {
              "indexed": true,
              "internalType": "address",
              "name": "sender",
              "type": "address"
            }
          ],
          "name": "RoleRevoked",
          "type": "event"
        },
        {
          "inputs": [],
          "name": "DEFAULT_ADMIN_ROLE",
          "outputs": [
            {
              "internalType": "bytes32",
              "name": "",
              "type": "bytes32"
            }
          ],
          "stateMutability": "view",
          "type": "function"
        },
        {
          "inputs": [
            {
              "internalType": "bytes",
              "name": "inputs",
              "type": "bytes"
            }
          ],
          "name": "DecodeData",
          "outputs": [
            {
              "internalType": "bytes",
              "name": "",
              "type": "bytes"
            }
          ],
          "stateMutability": "pure",
          "type": "function"
        },
        {
          "inputs": [
            {
              "internalType": "uint256",
              "name": "amountIn",
              "type": "uint256"
            },
            {
              "internalType": "uint256",
              "name": "amountOutMinimum",
              "type": "uint256"
            },
            {
              "internalType": "bytes",
              "name": "path",
              "type": "bytes"
            }
          ],
          "name": "buy",
          "outputs": [],
          "stateMutability": "nonpayable",
          "type": "function"
        },
        {
          "inputs": [],
          "name": "getPool",
          "outputs": [
            {
              "internalType": "address[3]",
              "name": "",
              "type": "address[3]"
            }
          ],
          "stateMutability": "view",
          "type": "function"
        },
        {
          "inputs": [
            {
              "internalType": "bytes32",
              "name": "role",
              "type": "bytes32"
            }
          ],
          "name": "getRoleAdmin",
          "outputs": [
            {
              "internalType": "bytes32",
              "name": "",
              "type": "bytes32"
            }
          ],
          "stateMutability": "view",
          "type": "function"
        },
        {
          "inputs": [],
          "name": "getRoles",
          "outputs": [
            {
              "internalType": "bytes32[3]",
              "name": "",
              "type": "bytes32[3]"
            }
          ],
          "stateMutability": "pure",
          "type": "function"
        },
        {
          "inputs": [
            {
              "internalType": "address[]",
              "name": "managers",
              "type": "address[]"
            }
          ],
          "name": "grantExecuters",
          "outputs": [],
          "stateMutability": "nonpayable",
          "type": "function"
        },
        {
          "inputs": [
            {
              "internalType": "bytes32",
              "name": "role",
              "type": "bytes32"
            },
            {
              "internalType": "address",
              "name": "account",
              "type": "address"
            }
          ],
          "name": "grantRole",
          "outputs": [],
          "stateMutability": "nonpayable",
          "type": "function"
        },
        {
          "inputs": [
            {
              "internalType": "bytes32",
              "name": "role",
              "type": "bytes32"
            },
            {
              "internalType": "address",
              "name": "account",
              "type": "address"
            }
          ],
          "name": "hasRole",
          "outputs": [
            {
              "internalType": "bool",
              "name": "",
              "type": "bool"
            }
          ],
          "stateMutability": "view",
          "type": "function"
        },
        {
          "inputs": [
            {
              "internalType": "int256",
              "name": "amount0Delta",
              "type": "int256"
            },
            {
              "internalType": "int256",
              "name": "amount1Delta",
              "type": "int256"
            },
            {
              "internalType": "bytes",
              "name": "data",
              "type": "bytes"
            }
          ],
          "name": "pancakeV3SwapCallback",
          "outputs": [],
          "stateMutability": "nonpayable",
          "type": "function"
        },
        {
          "inputs": [
            {
              "internalType": "bytes32",
              "name": "role",
              "type": "bytes32"
            },
            {
              "internalType": "address",
              "name": "callerConfirmation",
              "type": "address"
            }
          ],
          "name": "renounceRole",
          "outputs": [],
          "stateMutability": "nonpayable",
          "type": "function"
        },
        {
          "inputs": [
            {
              "internalType": "address[]",
              "name": "managers",
              "type": "address[]"
            }
          ],
          "name": "revokeExecuters",
          "outputs": [],
          "stateMutability": "nonpayable",
          "type": "function"
        },
        {
          "inputs": [
            {
              "internalType": "bytes32",
              "name": "role",
              "type": "bytes32"
            },
            {
              "internalType": "address",
              "name": "account",
              "type": "address"
            }
          ],
          "name": "revokeRole",
          "outputs": [],
          "stateMutability": "nonpayable",
          "type": "function"
        },
        {
          "inputs": [
            {
              "internalType": "uint256",
              "name": "amountOut",
              "type": "uint256"
            },
            {
              "internalType": "uint256",
              "name": "amountInMaximum",
              "type": "uint256"
            },
            {
              "internalType": "bytes",
              "name": "path",
              "type": "bytes"
            }
          ],
          "name": "sell",
          "outputs": [],
          "stateMutability": "nonpayable",
          "type": "function"
        },
        {
          "inputs": [
            {
              "internalType": "address",
              "name": "_pool",
              "type": "address"
            }
          ],
          "name": "setPool",
          "outputs": [],
          "stateMutability": "nonpayable",
          "type": "function"
        },
        {
          "inputs": [
            {
              "internalType": "bytes4",
              "name": "interfaceId",
              "type": "bytes4"
            }
          ],
          "name": "supportsInterface",
          "outputs": [
            {
              "internalType": "bool",
              "name": "",
              "type": "bool"
            }
          ],
          "stateMutability": "view",
          "type": "function"
        },
        {
          "inputs": [
            {
              "internalType": "int256",
              "name": "amount0Delta",
              "type": "int256"
            },
            {
              "internalType": "int256",
              "name": "amount1Delta",
              "type": "int256"
            },
            {
              "internalType": "bytes",
              "name": "data",
              "type": "bytes"
            }
          ],
          "name": "uniswapV3SwapCallback",
          "outputs": [],
          "stateMutability": "nonpayable",
          "type": "function"
        }
      ],
      "evm": {
        "bytecode": {
          "linkReferences": {},
          "object": "60806040526000196005553480156200001757600080fd5b50604051620016a9380380620016a98339810160408190526200003a9162000342565b600480546001600160a01b03191633179055620000686000805160206200166983398151915260006200022b565b6200009260008051602062001689833981519152600080516020620016698339815191526200022b565b6200009f60003362000276565b50620000bb600080516020620016698339815191523362000276565b50620000d7600080516020620016898339815191523362000276565b50620000f3600080516020620016698339815191528262000276565b50600180546001600160a01b0319166001600160a01b03841690811790915560408051630dfe168160e01b81529051849291630dfe16819160048083019260209291908290030181865afa15801562000150573d6000803e3d6000fd5b505050506040513d601f19601f820116820180604052508101906200017691906200037a565b600260006101000a8154816001600160a01b0302191690836001600160a01b03160217905550806001600160a01b031663d21220a76040518163ffffffff1660e01b8152600401602060405180830381865afa158015620001db573d6000803e3d6000fd5b505050506040513d601f19601f820116820180604052508101906200020191906200037a565b600380546001600160a01b0319166001600160a01b0392909216919091179055506200039f915050565b600082815260208190526040808220600101805490849055905190918391839186917fbd79b86ffe0ab8e8776151514217cd7cacd52c909f66475c3af44e129f0b00ff9190a4505050565b6000828152602081815260408083206001600160a01b038516845290915281205460ff166200031b576000838152602081815260408083206001600160a01b03861684529091529020805460ff19166001179055620002d23390565b6001600160a01b0316826001600160a01b0316847f2f8788117e7eff1d82e926ec794901d17c78024a50270940304540a733656f0d60405160405180910390a45060016200031f565b5060005b92915050565b80516001600160a01b03811681146200033d57600080fd5b919050565b600080604083850312156200035657600080fd5b620003618362000325565b9150620003716020840162000325565b90509250929050565b6000602082840312156200038d57600080fd5b620003988262000325565b9392505050565b6112ba80620003af6000396000f3fe608060405234801561001057600080fd5b506004361061010b5760003560e01c806336568abe116100a257806375d785b81161007157806375d785b81461023b57806391d148541461024e578063a217fddf14610261578063d547741f14610269578063fa461e331461017557600080fd5b806336568abe146101ed5780634437152a1461020057806349a44aa114610213578063710613981461022657600080fd5b806323a69e75116100de57806323a69e7514610175578063248a9ca3146101885780632967b00d146101b95780632f2ff15d146101da57600080fd5b806301ffc9a714610110578063026b1d5f146101385780631235e9f71461014d5780631efd73a514610162575b600080fd5b61012361011e366004610da3565b61027c565b60405190151581526020015b60405180910390f35b6101406102b3565b60405161012f9190610dd4565b61016061015b366004610e49565b6102ee565b005b610160610170366004610f50565b610363565b610160610183366004610f50565b610422565b6101ab610196366004610fa3565b60009081526020819052604090206001015490565b60405190815260200161012f565b6101cc6101c7366004610fbc565b61047e565b60405161012f929190611027565b6101606101e8366004611043565b61049e565b6101606101fb366004611043565b6104c3565b61016061020e366004611073565b6104f6565b610160610221366004610f50565b61062d565b61022e6106f4565b60405161012f9190611090565b610160610249366004610e49565b61074a565b61012361025c366004611043565b6107ba565b6101ab600081565b610160610277366004611043565b6107e3565b60006001600160e01b03198216637965db0b60e01b14806102ad57506301ffc9a760e01b6001600160e01b03198316145b92915050565b6102bb610d85565b50604080516060810182526001546001600160a01b03908116825260025481166020830152600354169181019190915290565b7faf290d8680820aad922855f39b306097b20e28774d6c1ad35a20325630c3a02c61031881610808565b60005b825181101561035e57610355600080516020611265833981519152848381518110610348576103486110b8565b6020026020010151610815565b5060010161031b565b505050565b60008051602061126583398151915261037b81610808565b60008060006103a261038c89610888565b6004546001600160a01b0316888830600161089e565b9250925092506000816103b557836103b7565b825b6103c0906110e4565b9050878110156104175760405162461bcd60e51b815260206004820152601a60248201527f496e76616c696420746f206c6974746c6520726563696576656400000000000060448201526064015b60405180910390fd5b505050505050505050565b6001546001600160a01b0316331461046c5760405162461bcd60e51b815260206004820152600d60248201526c1bdb9b1e48199bdc881c1bdbdb609a1b604482015260640161040e565b610478848484846109d4565b50505050565b366000818161048f86866003610bfa565b909450925050505b9250929050565b6000828152602081905260409020600101546104b981610808565b6104788383610c18565b6001600160a01b03811633146104ec5760405163334bd91960e11b815260040160405180910390fd5b61035e8282610815565b600061050181610808565b600180546001600160a01b0319166001600160a01b03841690811790915560408051630dfe168160e01b81529051849291630dfe16819160048083019260209291908290030181865afa15801561055c573d6000803e3d6000fd5b505050506040513d601f19601f820116820180604052508101906105809190611100565b600260006101000a8154816001600160a01b0302191690836001600160a01b03160217905550806001600160a01b031663d21220a76040518163ffffffff1660e01b8152600401602060405180830381865afa1580156105e4573d6000803e3d6000fd5b505050506040513d601f19601f820116820180604052508101906106089190611100565b600380546001600160a01b0319166001600160a01b0392909216919091179055505050565b60008051602061126583398151915261064581610808565b60058490556000808061067961065a89610888565b610663906110e4565b6004546001600160a01b0316888830600061089e565b9250925092506000816106945761068f846110e4565b61069d565b61069d836110e4565b90508881146106e35760405162461bcd60e51b8152602060048201526012602482015271125b9d985b1a5908185b5bdd5b9d081bdd5d60721b604482015260640161040e565b505060001960055550505050505050565b6106fc610d85565b5060408051606081018252600081527faf290d8680820aad922855f39b306097b20e28774d6c1ad35a20325630c3a02c60208201526000805160206112658339815191529181019190915290565b7faf290d8680820aad922855f39b306097b20e28774d6c1ad35a20325630c3a02c61077481610808565b60005b825181101561035e576107b16000805160206112658339815191528483815181106107a4576107a46110b8565b6020026020010151610c18565b50600101610777565b6000918252602082815260408084206001600160a01b0393909316845291905290205460ff1690565b6000828152602081905260409020600101546107fe81610808565b6104788383610815565b6108128133610ca2565b50565b600061082183836107ba565b15610880576000838152602081815260408083206001600160a01b0386168085529252808320805460ff1916905551339286917ff6391f5c32d9c69d2a47ea670b442974b53935d1edc7fd64eb21e047a839171b9190a45060016102ad565b5060006102ad565b6000600160ff1b821061089a57600080fd5b5090565b60008060008060006108b08989610cdf565b9250509150856108d457816001600160a01b0316816001600160a01b0316106108ea565b806001600160a01b0316826001600160a01b0316105b6001549093506001600160a01b031663128acb088b858e8161092a57610925600173fffd8963efd1fc6a506488495d951d5263988d2661111d565b61093a565b61093a6401000276a36001611144565b8e8e8e60405160200161094f93929190611164565b6040516020818303038152906040526040518663ffffffff1660e01b815260040161097e959493929190611190565b60408051808303816000875af115801561099c573d6000803e3d6000fd5b505050506040513d601f19601f820116820180604052508101906109c0919061120b565b909c909b5092995091975050505050505050565b600084131580156109e6575060008313155b15610a235760405162461bcd60e51b815260206004820152600d60248201526c64656c7461206973207a65726f60981b604482015260640161040e565b366000610a31848483610bfa565b91509150600080610a428484610cdf565b925050915060008060008a13610a6d57836001600160a01b0316836001600160a01b03161089610a84565b826001600160a01b0316846001600160a01b0316108a5b915091508115610b1757600480546040516323b872dd60e01b81526001600160a01b0391821692810192909252336024830152604482018390528591908216906323b872dd906064016020604051808303816000875af1158015610aec573d6000803e3d6000fd5b505050506040513d601f19601f82011682018060405250810190610b10919061122f565b5050610bee565b600554811115610b695760405162461bcd60e51b815260206004820152601960248201527f496e76616c696420746f206d7563682072657175657374656400000000000000604482015260640161040e565b600480546040516323b872dd60e01b81526001600160a01b0391821692810192909252336024830152604482018390528491908216906323b872dd906064016020604051808303816000875af1158015610bc7573d6000803e3d6000fd5b505050506040513d601f19601f82011682018060405250810190610beb919061122f565b50505b50505050505050505050565b366000806000610c0b878787610d3b565b9890975095505050505050565b6000610c2483836107ba565b610880576000838152602081815260408083206001600160a01b03861684529091529020805460ff19166001179055610c5a3390565b6001600160a01b0316826001600160a01b0316847f2f8788117e7eff1d82e926ec794901d17c78024a50270940304540a733656f0d60405160405180910390a45060016102ad565b610cac82826107ba565b610cdb5760405163e2517d3f60e01b81526001600160a01b03821660048201526024810183905260440161040e565b5050565b600080806014610cf0600382611251565b610cfa9190611251565b841015610d1a57604051633b99b53d60e01b815260040160405180910390fd5b5050508135606081811c9460489290921c62ffffff169360170135901c9150565b600581901b830135830180359060208082019186900301610d5c8184611251565b851015610d7c57604051633b99b53d60e01b815260040160405180910390fd5b50935093915050565b60405180606001604052806003906020820280368337509192915050565b600060208284031215610db557600080fd5b81356001600160e01b031981168114610dcd57600080fd5b9392505050565b60608101818360005b6003811015610e055781516001600160a01b0316835260209283019290910190600101610ddd565b50505092915050565b634e487b7160e01b600052604160045260246000fd5b6001600160a01b038116811461081257600080fd5b8035610e4481610e24565b919050565b60006020808385031215610e5c57600080fd5b823567ffffffffffffffff80821115610e7457600080fd5b818501915085601f830112610e8857600080fd5b813581811115610e9a57610e9a610e0e565b8060051b604051601f19603f83011681018181108582111715610ebf57610ebf610e0e565b604052918252848201925083810185019188831115610edd57600080fd5b938501935b82851015610f0257610ef385610e39565b84529385019392850192610ee2565b98975050505050505050565b60008083601f840112610f2057600080fd5b50813567ffffffffffffffff811115610f3857600080fd5b60208301915083602082850101111561049757600080fd5b60008060008060608587031215610f6657600080fd5b8435935060208501359250604085013567ffffffffffffffff811115610f8b57600080fd5b610f9787828801610f0e565b95989497509550505050565b600060208284031215610fb557600080fd5b5035919050565b60008060208385031215610fcf57600080fd5b823567ffffffffffffffff811115610fe657600080fd5b610ff285828601610f0e565b90969095509350505050565b81835281816020850137506000828201602090810191909152601f909101601f19169091010190565b60208152600061103b602083018486610ffe565b949350505050565b6000806040838503121561105657600080fd5b82359150602083013561106881610e24565b809150509250929050565b60006020828403121561108557600080fd5b8135610dcd81610e24565b60608101818360005b6003811015610e05578151835260209283019290910190600101611099565b634e487b7160e01b600052603260045260246000fd5b634e487b7160e01b600052601160045260246000fd5b6000600160ff1b82016110f9576110f96110ce565b5060000390565b60006020828403121561111257600080fd5b8151610dcd81610e24565b6001600160a01b0382811682821603908082111561113d5761113d6110ce565b5092915050565b6001600160a01b0381811683821601908082111561113d5761113d6110ce565b604081526000611178604083018587610ffe565b905060018060a01b0383166020830152949350505050565b600060018060a01b03808816835260208715156020850152866040850152818616606085015260a06080850152845191508160a085015260005b828110156111e65785810182015185820160c0015281016111ca565b5050600060c0828501015260c0601f19601f8301168401019150509695505050505050565b6000806040838503121561121e57600080fd5b505080516020909101519092909150565b60006020828403121561124157600080fd5b81518015158114610dcd57600080fd5b808201808211156102ad576102ad6110ce56fe0f0577625b6f3a828f1556de6cd4f7c7d5f4fc58549b227f1bb8cf5524706c2ba2646970667358221220e3b085cbee0b4f62f7e9edd5c205bce98829e72286eeee4f322ba2f7b293910c64736f6c63430008180033af290d8680820aad922855f39b306097b20e28774d6c1ad35a20325630c3a02c0f0577625b6f3a828f1556de6cd4f7c7d5f4fc58549b227f1bb8cf5524706c2b",
          "opcodes": "PUSH1 0x80 PUSH1 0x40 MSTORE PUSH1 0x0 NOT PUSH1 0x5 SSTORE CALLVALUE DUP1 ISZERO PUSH3 0x17 JUMPI PUSH1 0x0 DUP1 REVERT JUMPDEST POP PUSH1 0x40 MLOAD PUSH3 0x16A9 CODESIZE SUB DUP1 PUSH3 0x16A9 DUP4 CODECOPY DUP2 ADD PUSH1 0x40 DUP2 SWAP1 MSTORE PUSH3 0x3A SWAP2 PUSH3 0x342 JUMP JUMPDEST PUSH1 0x4 DUP1 SLOAD PUSH1 0x1 PUSH1 0x1 PUSH1 0xA0 SHL SUB NOT AND CALLER OR SWAP1 SSTORE PUSH3 0x68 PUSH1 0x0 DUP1 MLOAD PUSH1 0x20 PUSH3 0x1669 DUP4 CODECOPY DUP2 MLOAD SWAP2 MSTORE PUSH1 0x0 PUSH3 0x22B JUMP JUMPDEST PUSH3 0x92 PUSH1 0x0 DUP1 MLOAD PUSH1 0x20 PUSH3 0x1689 DUP4 CODECOPY DUP2 MLOAD SWAP2 MSTORE PUSH1 0x0 DUP1 MLOAD PUSH1 0x20 PUSH3 0x1669 DUP4 CODECOPY DUP2 MLOAD SWAP2 MSTORE PUSH3 0x22B JUMP JUMPDEST PUSH3 0x9F PUSH1 0x0 CALLER PUSH3 0x276 JUMP JUMPDEST POP PUSH3 0xBB PUSH1 0x0 DUP1 MLOAD PUSH1 0x20 PUSH3 0x1669 DUP4 CODECOPY DUP2 MLOAD SWAP2 MSTORE CALLER PUSH3 0x276 JUMP JUMPDEST POP PUSH3 0xD7 PUSH1 0x0 DUP1 MLOAD PUSH1 0x20 PUSH3 0x1689 DUP4 CODECOPY DUP2 MLOAD SWAP2 MSTORE CALLER PUSH3 0x276 JUMP JUMPDEST POP PUSH3 0xF3 PUSH1 0x0 DUP1 MLOAD PUSH1 0x20 PUSH3 0x1669 DUP4 CODECOPY DUP2 MLOAD SWAP2 MSTORE DUP3 PUSH3 0x276 JUMP JUMPDEST POP PUSH1 0x1 DUP1 SLOAD PUSH1 0x1 PUSH1 0x1 PUSH1 0xA0 SHL SUB NOT AND PUSH1 0x1 PUSH1 0x1 PUSH1 0xA0 SHL SUB DUP5 AND SWAP1 DUP2 OR SWAP1 SWAP2 SSTORE PUSH1 0x40 DUP1 MLOAD PUSH4 0xDFE1681 PUSH1 0xE0 SHL DUP2 MSTORE SWAP1 MLOAD DUP5 SWAP3 SWAP2 PUSH4 0xDFE1681 SWAP2 PUSH1 0x4 DUP1 DUP4 ADD SWAP3 PUSH1 0x20 SWAP3 SWAP2 SWAP1 DUP3 SWAP1 SUB ADD DUP2 DUP7 GAS STATICCALL ISZERO DUP1 ISZERO PUSH3 0x150 JUMPI RETURNDATASIZE PUSH1 0x0 DUP1 RETURNDATACOPY RETURNDATASIZE PUSH1 0x0 REVERT JUMPDEST POP POP POP POP PUSH1 0x40 MLOAD RETURNDATASIZE PUSH1 0x1F NOT PUSH1 0x1F DUP3 ADD AND DUP3 ADD DUP1 PUSH1 0x40 MSTORE POP DUP2 ADD SWAP1 PUSH3 0x176 SWAP2 SWAP1 PUSH3 0x37A JUMP JUMPDEST PUSH1 0x2 PUSH1 0x0 PUSH2 0x100 EXP DUP2 SLOAD DUP2 PUSH1 0x1 PUSH1 0x1 PUSH1 0xA0 SHL SUB MUL NOT AND SWAP1 DUP4 PUSH1 0x1 PUSH1 0x1 PUSH1 0xA0 SHL SUB AND MUL OR SWAP1 SSTORE POP DUP1 PUSH1 0x1 PUSH1 0x1 PUSH1 0xA0 SHL SUB AND PUSH4 0xD21220A7 PUSH1 0x40 MLOAD DUP2 PUSH4 0xFFFFFFFF AND PUSH1 0xE0 SHL DUP2 MSTORE PUSH1 0x4 ADD PUSH1 0x20 PUSH1 0x40 MLOAD DUP1 DUP4 SUB DUP2 DUP7 GAS STATICCALL ISZERO DUP1 ISZERO PUSH3 0x1DB JUMPI RETURNDATASIZE PUSH1 0x0 DUP1 RETURNDATACOPY RETURNDATASIZE PUSH1 0x0 REVERT JUMPDEST POP POP POP POP PUSH1 0x40 MLOAD RETURNDATASIZE PUSH1 0x1F NOT PUSH1 0x1F DUP3 ADD AND DUP3 ADD DUP1 PUSH1 0x40 MSTORE POP DUP2 ADD SWAP1 PUSH3 0x201 SWAP2 SWAP1 PUSH3 0x37A JUMP JUMPDEST PUSH1 0x3 DUP1 SLOAD PUSH1 0x1 PUSH1 0x1 PUSH1 0xA0 SHL SUB NOT AND PUSH1 0x1 PUSH1 0x1 PUSH1 0xA0 SHL SUB SWAP3 SWAP1 SWAP3 AND SWAP2 SWAP1 SWAP2 OR SWAP1 SSTORE POP PUSH3 0x39F SWAP2 POP POP JUMP JUMPDEST PUSH1 0x0 DUP3 DUP2 MSTORE PUSH1 0x20 DUP2 SWAP1 MSTORE PUSH1 0x40 DUP1 DUP3 KECCAK256 PUSH1 0x1 ADD DUP1 SLOAD SWAP1 DUP5 SWAP1 SSTORE SWAP1 MLOAD SWAP1 SWAP2 DUP4 SWAP2 DUP4 SWAP2 DUP7 SWAP2 PUSH32 0xBD79B86FFE0AB8E8776151514217CD7CACD52C909F66475C3AF44E129F0B00FF SWAP2 SWAP1 LOG4 POP POP POP JUMP JUMPDEST PUSH1 0x0 DUP3 DUP2 MSTORE PUSH1 0x20 DUP2 DUP2 MSTORE PUSH1 0x40 DUP1 DUP4 KECCAK256 PUSH1 0x1 PUSH1 0x1 PUSH1 0xA0 SHL SUB DUP6 AND DUP5 MSTORE SWAP1 SWAP2 MSTORE DUP2 KECCAK256 SLOAD PUSH1 0xFF AND PUSH3 0x31B JUMPI PUSH1 0x0 DUP4 DUP2 MSTORE PUSH1 0x20 DUP2 DUP2 MSTORE PUSH1 0x40 DUP1 DUP4 KECCAK256 PUSH1 0x1 PUSH1 0x1 PUSH1 0xA0 SHL SUB DUP7 AND DUP5 MSTORE SWAP1 SWAP2 MSTORE SWAP1 KECCAK256 DUP1 SLOAD PUSH1 0xFF NOT AND PUSH1 0x1 OR SWAP1 SSTORE PUSH3 0x2D2 CALLER SWAP1 JUMP JUMPDEST PUSH1 0x1 PUSH1 0x1 PUSH1 0xA0 SHL SUB AND DUP3 PUSH1 0x1 PUSH1 0x1 PUSH1 0xA0 SHL SUB AND DUP5 PUSH32 0x2F8788117E7EFF1D82E926EC794901D17C78024A50270940304540A733656F0D PUSH1 0x40 MLOAD PUSH1 0x40 MLOAD DUP1 SWAP2 SUB SWAP1 LOG4 POP PUSH1 0x1 PUSH3 0x31F JUMP JUMPDEST POP PUSH1 0x0 JUMPDEST SWAP3 SWAP2 POP POP JUMP JUMPDEST DUP1 MLOAD PUSH1 0x1 PUSH1 0x1 PUSH1 0xA0 SHL SUB DUP2 AND DUP2 EQ PUSH3 0x33D JUMPI PUSH1 0x0 DUP1 REVERT JUMPDEST SWAP2 SWAP1 POP JUMP JUMPDEST PUSH1 0x0 DUP1 PUSH1 0x40 DUP4 DUP6 SUB SLT ISZERO PUSH3 0x356 JUMPI PUSH1 0x0 DUP1 REVERT JUMPDEST PUSH3 0x361 DUP4 PUSH3 0x325 JUMP JUMPDEST SWAP2 POP PUSH3 0x371 PUSH1 0x20 DUP5 ADD PUSH3 0x325 JUMP JUMPDEST SWAP1 POP SWAP3 POP SWAP3 SWAP1 POP JUMP JUMPDEST PUSH1 0x0 PUSH1 0x20 DUP3 DUP5 SUB SLT ISZERO PUSH3 0x38D JUMPI PUSH1 0x0 DUP1 REVERT JUMPDEST PUSH3 0x398 DUP3 PUSH3 0x325 JUMP JUMPDEST SWAP4 SWAP3 POP POP POP JUMP JUMPDEST PUSH2 0x12BA DUP1 PUSH3 0x3AF PUSH1 0x0 CODECOPY PUSH1 0x0 RETURN INVALID PUSH1 0x80 PUSH1 0x40 MSTORE CALLVALUE DUP1 ISZERO PUSH2 0x10 JUMPI PUSH1 0x0 DUP1 REVERT JUMPDEST POP PUSH1 0x4 CALLDATASIZE LT PUSH2 0x10B JUMPI PUSH1 0x0 CALLDATALOAD PUSH1 0xE0 SHR DUP1 PUSH4 0x36568ABE GT PUSH2 0xA2 JUMPI DUP1 PUSH4 0x75D785B8 GT PUSH2 0x71 JUMPI DUP1 PUSH4 0x75D785B8 EQ PUSH2 0x23B JUMPI DUP1 PUSH4 0x91D14854 EQ PUSH2 0x24E JUMPI DUP1 PUSH4 0xA217FDDF EQ PUSH2 0x261 JUMPI DUP1 PUSH4 0xD547741F EQ PUSH2 0x269 JUMPI DUP1 PUSH4 0xFA461E33 EQ PUSH2 0x175 JUMPI PUSH1 0x0 DUP1 REVERT JUMPDEST DUP1 PUSH4 0x36568ABE EQ PUSH2 0x1ED JUMPI DUP1 PUSH4 0x4437152A EQ PUSH2 0x200 JUMPI DUP1 PUSH4 0x49A44AA1 EQ PUSH2 0x213 JUMPI DUP1 PUSH4 0x71061398 EQ PUSH2 0x226 JUMPI PUSH1 0x0 DUP1 REVERT JUMPDEST DUP1 PUSH4 0x23A69E75 GT PUSH2 0xDE JUMPI DUP1 PUSH4 0x23A69E75 EQ PUSH2 0x175 JUMPI DUP1 PUSH4 0x248A9CA3 EQ PUSH2 0x188 JUMPI DUP1 PUSH4 0x2967B00D EQ PUSH2 0x1B9 JUMPI DUP1 PUSH4 0x2F2FF15D EQ PUSH2 0x1DA JUMPI PUSH1 0x0 DUP1 REVERT JUMPDEST DUP1 PUSH4 0x1FFC9A7 EQ PUSH2 0x110 JUMPI DUP1 PUSH4 0x26B1D5F EQ PUSH2 0x138 JUMPI DUP1 PUSH4 0x1235E9F7 EQ PUSH2 0x14D JUMPI DUP1 PUSH4 0x1EFD73A5 EQ PUSH2 0x162 JUMPI JUMPDEST PUSH1 0x0 DUP1 REVERT JUMPDEST PUSH2 0x123 PUSH2 0x11E CALLDATASIZE PUSH1 0x4 PUSH2 0xDA3 JUMP JUMPDEST PUSH2 0x27C JUMP JUMPDEST PUSH1 0x40 MLOAD SWAP1 ISZERO ISZERO DUP2 MSTORE PUSH1 0x20 ADD JUMPDEST PUSH1 0x40 MLOAD DUP1 SWAP2 SUB SWAP1 RETURN JUMPDEST PUSH2 0x140 PUSH2 0x2B3 JUMP JUMPDEST PUSH1 0x40 MLOAD PUSH2 0x12F SWAP2 SWAP1 PUSH2 0xDD4 JUMP JUMPDEST PUSH2 0x160 PUSH2 0x15B CALLDATASIZE PUSH1 0x4 PUSH2 0xE49 JUMP JUMPDEST PUSH2 0x2EE JUMP JUMPDEST STOP JUMPDEST PUSH2 0x160 PUSH2 0x170 CALLDATASIZE PUSH1 0x4 PUSH2 0xF50 JUMP JUMPDEST PUSH2 0x363 JUMP JUMPDEST PUSH2 0x160 PUSH2 0x183 CALLDATASIZE PUSH1 0x4 PUSH2 0xF50 JUMP JUMPDEST PUSH2 0x422 JUMP JUMPDEST PUSH2 0x1AB PUSH2 0x196 CALLDATASIZE PUSH1 0x4 PUSH2 0xFA3 JUMP JUMPDEST PUSH1 0x0 SWAP1 DUP2 MSTORE PUSH1 0x20 DUP2 SWAP1 MSTORE PUSH1 0x40 SWAP1 KECCAK256 PUSH1 0x1 ADD SLOAD SWAP1 JUMP JUMPDEST PUSH1 0x40 MLOAD SWAP1 DUP2 MSTORE PUSH1 0x20 ADD PUSH2 0x12F JUMP JUMPDEST PUSH2 0x1CC PUSH2 0x1C7 CALLDATASIZE PUSH1 0x4 PUSH2 0xFBC JUMP JUMPDEST PUSH2 0x47E JUMP JUMPDEST PUSH1 0x40 MLOAD PUSH2 0x12F SWAP3 SWAP2 SWAP1 PUSH2 0x1027 JUMP JUMPDEST PUSH2 0x160 PUSH2 0x1E8 CALLDATASIZE PUSH1 0x4 PUSH2 0x1043 JUMP JUMPDEST PUSH2 0x49E JUMP JUMPDEST PUSH2 0x160 PUSH2 0x1FB CALLDATASIZE PUSH1 0x4 PUSH2 0x1043 JUMP JUMPDEST PUSH2 0x4C3 JUMP JUMPDEST PUSH2 0x160 PUSH2 0x20E CALLDATASIZE PUSH1 0x4 PUSH2 0x1073 JUMP JUMPDEST PUSH2 0x4F6 JUMP JUMPDEST PUSH2 0x160 PUSH2 0x221 CALLDATASIZE PUSH1 0x4 PUSH2 0xF50 JUMP JUMPDEST PUSH2 0x62D JUMP JUMPDEST PUSH2 0x22E PUSH2 0x6F4 JUMP JUMPDEST PUSH1 0x40 MLOAD PUSH2 0x12F SWAP2 SWAP1 PUSH2 0x1090 JUMP JUMPDEST PUSH2 0x160 PUSH2 0x249 CALLDATASIZE PUSH1 0x4 PUSH2 0xE49 JUMP JUMPDEST PUSH2 0x74A JUMP JUMPDEST PUSH2 0x123 PUSH2 0x25C CALLDATASIZE PUSH1 0x4 PUSH2 0x1043 JUMP JUMPDEST PUSH2 0x7BA JUMP JUMPDEST PUSH2 0x1AB PUSH1 0x0 DUP2 JUMP JUMPDEST PUSH2 0x160 PUSH2 0x277 CALLDATASIZE PUSH1 0x4 PUSH2 0x1043 JUMP JUMPDEST PUSH2 0x7E3 JUMP JUMPDEST PUSH1 0x0 PUSH1 0x1 PUSH1 0x1 PUSH1 0xE0 SHL SUB NOT DUP3 AND PUSH4 0x7965DB0B PUSH1 0xE0 SHL EQ DUP1 PUSH2 0x2AD JUMPI POP PUSH4 0x1FFC9A7 PUSH1 0xE0 SHL PUSH1 0x1 PUSH1 0x1 PUSH1 0xE0 SHL SUB NOT DUP4 AND EQ JUMPDEST SWAP3 SWAP2 POP POP JUMP JUMPDEST PUSH2 0x2BB PUSH2 0xD85 JUMP JUMPDEST POP PUSH1 0x40 DUP1 MLOAD PUSH1 0x60 DUP2 ADD DUP3 MSTORE PUSH1 0x1 SLOAD PUSH1 0x1 PUSH1 0x1 PUSH1 0xA0 SHL SUB SWAP1 DUP2 AND DUP3 MSTORE PUSH1 0x2 SLOAD DUP2 AND PUSH1 0x20 DUP4 ADD MSTORE PUSH1 0x3 SLOAD AND SWAP2 DUP2 ADD SWAP2 SWAP1 SWAP2 MSTORE SWAP1 JUMP JUMPDEST PUSH32 0xAF290D8680820AAD922855F39B306097B20E28774D6C1AD35A20325630C3A02C PUSH2 0x318 DUP2 PUSH2 0x808 JUMP JUMPDEST PUSH1 0x0 JUMPDEST DUP3 MLOAD DUP2 LT ISZERO PUSH2 0x35E JUMPI PUSH2 0x355 PUSH1 0x0 DUP1 MLOAD PUSH1 0x20 PUSH2 0x1265 DUP4 CODECOPY DUP2 MLOAD SWAP2 MSTORE DUP5 DUP4 DUP2 MLOAD DUP2 LT PUSH2 0x348 JUMPI PUSH2 0x348 PUSH2 0x10B8 JUMP JUMPDEST PUSH1 0x20 MUL PUSH1 0x20 ADD ADD MLOAD PUSH2 0x815 JUMP JUMPDEST POP PUSH1 0x1 ADD PUSH2 0x31B JUMP JUMPDEST POP POP POP JUMP JUMPDEST PUSH1 0x0 DUP1 MLOAD PUSH1 0x20 PUSH2 0x1265 DUP4 CODECOPY DUP2 MLOAD SWAP2 MSTORE PUSH2 0x37B DUP2 PUSH2 0x808 JUMP JUMPDEST PUSH1 0x0 DUP1 PUSH1 0x0 PUSH2 0x3A2 PUSH2 0x38C DUP10 PUSH2 0x888 JUMP JUMPDEST PUSH1 0x4 SLOAD PUSH1 0x1 PUSH1 0x1 PUSH1 0xA0 SHL SUB AND DUP9 DUP9 ADDRESS PUSH1 0x1 PUSH2 0x89E JUMP JUMPDEST SWAP3 POP SWAP3 POP SWAP3 POP PUSH1 0x0 DUP2 PUSH2 0x3B5 JUMPI DUP4 PUSH2 0x3B7 JUMP JUMPDEST DUP3 JUMPDEST PUSH2 0x3C0 SWAP1 PUSH2 0x10E4 JUMP JUMPDEST SWAP1 POP DUP8 DUP2 LT ISZERO PUSH2 0x417 JUMPI PUSH1 0x40 MLOAD PUSH3 0x461BCD PUSH1 0xE5 SHL DUP2 MSTORE PUSH1 0x20 PUSH1 0x4 DUP3 ADD MSTORE PUSH1 0x1A PUSH1 0x24 DUP3 ADD MSTORE PUSH32 0x496E76616C696420746F206C6974746C65207265636965766564000000000000 PUSH1 0x44 DUP3 ADD MSTORE PUSH1 0x64 ADD JUMPDEST PUSH1 0x40 MLOAD DUP1 SWAP2 SUB SWAP1 REVERT JUMPDEST POP POP POP POP POP POP POP POP POP JUMP JUMPDEST PUSH1 0x1 SLOAD PUSH1 0x1 PUSH1 0x1 PUSH1 0xA0 SHL SUB AND CALLER EQ PUSH2 0x46C JUMPI PUSH1 0x40 MLOAD PUSH3 0x461BCD PUSH1 0xE5 SHL DUP2 MSTORE PUSH1 0x20 PUSH1 0x4 DUP3 ADD MSTORE PUSH1 0xD PUSH1 0x24 DUP3 ADD MSTORE PUSH13 0x1BDB9B1E48199BDC881C1BDBDB PUSH1 0x9A SHL PUSH1 0x44 DUP3 ADD MSTORE PUSH1 0x64 ADD PUSH2 0x40E JUMP JUMPDEST PUSH2 0x478 DUP5 DUP5 DUP5 DUP5 PUSH2 0x9D4 JUMP JUMPDEST POP POP POP POP JUMP JUMPDEST CALLDATASIZE PUSH1 0x0 DUP2 DUP2 PUSH2 0x48F DUP7 DUP7 PUSH1 0x3 PUSH2 0xBFA JUMP JUMPDEST SWAP1 SWAP5 POP SWAP3 POP POP POP JUMPDEST SWAP3 POP SWAP3 SWAP1 POP JUMP JUMPDEST PUSH1 0x0 DUP3 DUP2 MSTORE PUSH1 0x20 DUP2 SWAP1 MSTORE PUSH1 0x40 SWAP1 KECCAK256 PUSH1 0x1 ADD SLOAD PUSH2 0x4B9 DUP2 PUSH2 0x808 JUMP JUMPDEST PUSH2 0x478 DUP4 DUP4 PUSH2 0xC18 JUMP JUMPDEST PUSH1 0x1 PUSH1 0x1 PUSH1 0xA0 SHL SUB DUP2 AND CALLER EQ PUSH2 0x4EC JUMPI PUSH1 0x40 MLOAD PUSH4 0x334BD919 PUSH1 0xE1 SHL DUP2 MSTORE PUSH1 0x4 ADD PUSH1 0x40 MLOAD DUP1 SWAP2 SUB SWAP1 REVERT JUMPDEST PUSH2 0x35E DUP3 DUP3 PUSH2 0x815 JUMP JUMPDEST PUSH1 0x0 PUSH2 0x501 DUP2 PUSH2 0x808 JUMP JUMPDEST PUSH1 0x1 DUP1 SLOAD PUSH1 0x1 PUSH1 0x1 PUSH1 0xA0 SHL SUB NOT AND PUSH1 0x1 PUSH1 0x1 PUSH1 0xA0 SHL SUB DUP5 AND SWAP1 DUP2 OR SWAP1 SWAP2 SSTORE PUSH1 0x40 DUP1 MLOAD PUSH4 0xDFE1681 PUSH1 0xE0 SHL DUP2 MSTORE SWAP1 MLOAD DUP5 SWAP3 SWAP2 PUSH4 0xDFE1681 SWAP2 PUSH1 0x4 DUP1 DUP4 ADD SWAP3 PUSH1 0x20 SWAP3 SWAP2 SWAP1 DUP3 SWAP1 SUB ADD DUP2 DUP7 GAS STATICCALL ISZERO DUP1 ISZERO PUSH2 0x55C JUMPI RETURNDATASIZE PUSH1 0x0 DUP1 RETURNDATACOPY RETURNDATASIZE PUSH1 0x0 REVERT JUMPDEST POP POP POP POP PUSH1 0x40 MLOAD RETURNDATASIZE PUSH1 0x1F NOT PUSH1 0x1F DUP3 ADD AND DUP3 ADD DUP1 PUSH1 0x40 MSTORE POP DUP2 ADD SWAP1 PUSH2 0x580 SWAP2 SWAP1 PUSH2 0x1100 JUMP JUMPDEST PUSH1 0x2 PUSH1 0x0 PUSH2 0x100 EXP DUP2 SLOAD DUP2 PUSH1 0x1 PUSH1 0x1 PUSH1 0xA0 SHL SUB MUL NOT AND SWAP1 DUP4 PUSH1 0x1 PUSH1 0x1 PUSH1 0xA0 SHL SUB AND MUL OR SWAP1 SSTORE POP DUP1 PUSH1 0x1 PUSH1 0x1 PUSH1 0xA0 SHL SUB AND PUSH4 0xD21220A7 PUSH1 0x40 MLOAD DUP2 PUSH4 0xFFFFFFFF AND PUSH1 0xE0 SHL DUP2 MSTORE PUSH1 0x4 ADD PUSH1 0x20 PUSH1 0x40 MLOAD DUP1 DUP4 SUB DUP2 DUP7 GAS STATICCALL ISZERO DUP1 ISZERO PUSH2 0x5E4 JUMPI RETURNDATASIZE PUSH1 0x0 DUP1 RETURNDATACOPY RETURNDATASIZE PUSH1 0x0 REVERT JUMPDEST POP POP POP POP PUSH1 0x40 MLOAD RETURNDATASIZE PUSH1 0x1F NOT PUSH1 0x1F DUP3 ADD AND DUP3 ADD DUP1 PUSH1 0x40 MSTORE POP DUP2 ADD SWAP1 PUSH2 0x608 SWAP2 SWAP1 PUSH2 0x1100 JUMP JUMPDEST PUSH1 0x3 DUP1 SLOAD PUSH1 0x1 PUSH1 0x1 PUSH1 0xA0 SHL SUB NOT AND PUSH1 0x1 PUSH1 0x1 PUSH1 0xA0 SHL SUB SWAP3 SWAP1 SWAP3 AND SWAP2 SWAP1 SWAP2 OR SWAP1 SSTORE POP POP POP JUMP JUMPDEST PUSH1 0x0 DUP1 MLOAD PUSH1 0x20 PUSH2 0x1265 DUP4 CODECOPY DUP2 MLOAD SWAP2 MSTORE PUSH2 0x645 DUP2 PUSH2 0x808 JUMP JUMPDEST PUSH1 0x5 DUP5 SWAP1 SSTORE PUSH1 0x0 DUP1 DUP1 PUSH2 0x679 PUSH2 0x65A DUP10 PUSH2 0x888 JUMP JUMPDEST PUSH2 0x663 SWAP1 PUSH2 0x10E4 JUMP JUMPDEST PUSH1 0x4 SLOAD PUSH1 0x1 PUSH1 0x1 PUSH1 0xA0 SHL SUB AND DUP9 DUP9 ADDRESS PUSH1 0x0 PUSH2 0x89E JUMP JUMPDEST SWAP3 POP SWAP3 POP SWAP3 POP PUSH1 0x0 DUP2 PUSH2 0x694 JUMPI PUSH2 0x68F DUP5 PUSH2 0x10E4 JUMP JUMPDEST PUSH2 0x69D JUMP JUMPDEST PUSH2 0x69D DUP4 PUSH2 0x10E4 JUMP JUMPDEST SWAP1 POP DUP9 DUP2 EQ PUSH2 0x6E3 JUMPI PUSH1 0x40 MLOAD PUSH3 0x461BCD PUSH1 0xE5 SHL DUP2 MSTORE PUSH1 0x20 PUSH1 0x4 DUP3 ADD MSTORE PUSH1 0x12 PUSH1 0x24 DUP3 ADD MSTORE PUSH18 0x125B9D985B1A5908185B5BDD5B9D081BDD5D PUSH1 0x72 SHL PUSH1 0x44 DUP3 ADD MSTORE PUSH1 0x64 ADD PUSH2 0x40E JUMP JUMPDEST POP POP PUSH1 0x0 NOT PUSH1 0x5 SSTORE POP POP POP POP POP POP POP JUMP JUMPDEST PUSH2 0x6FC PUSH2 0xD85 JUMP JUMPDEST POP PUSH1 0x40 DUP1 MLOAD PUSH1 0x60 DUP2 ADD DUP3 MSTORE PUSH1 0x0 DUP2 MSTORE PUSH32 0xAF290D8680820AAD922855F39B306097B20E28774D6C1AD35A20325630C3A02C PUSH1 0x20 DUP3 ADD MSTORE PUSH1 0x0 DUP1 MLOAD PUSH1 0x20 PUSH2 0x1265 DUP4 CODECOPY DUP2 MLOAD SWAP2 MSTORE SWAP2 DUP2 ADD SWAP2 SWAP1 SWAP2 MSTORE SWAP1 JUMP JUMPDEST PUSH32 0xAF290D8680820AAD922855F39B306097B20E28774D6C1AD35A20325630C3A02C PUSH2 0x774 DUP2 PUSH2 0x808 JUMP JUMPDEST PUSH1 0x0 JUMPDEST DUP3 MLOAD DUP2 LT ISZERO PUSH2 0x35E JUMPI PUSH2 0x7B1 PUSH1 0x0 DUP1 MLOAD PUSH1 0x20 PUSH2 0x1265 DUP4 CODECOPY DUP2 MLOAD SWAP2 MSTORE DUP5 DUP4 DUP2 MLOAD DUP2 LT PUSH2 0x7A4 JUMPI PUSH2 0x7A4 PUSH2 0x10B8 JUMP JUMPDEST PUSH1 0x20 MUL PUSH1 0x20 ADD ADD MLOAD PUSH2 0xC18 JUMP JUMPDEST POP PUSH1 0x1 ADD PUSH2 0x777 JUMP JUMPDEST PUSH1 0x0 SWAP2 DUP3 MSTORE PUSH1 0x20 DUP3 DUP2 MSTORE PUSH1 0x40 DUP1 DUP5 KECCAK256 PUSH1 0x1 PUSH1 0x1 PUSH1 0xA0 SHL SUB SWAP4 SWAP1 SWAP4 AND DUP5 MSTORE SWAP2 SWAP1 MSTORE SWAP1 KECCAK256 SLOAD PUSH1 0xFF AND SWAP1 JUMP JUMPDEST PUSH1 0x0 DUP3 DUP2 MSTORE PUSH1 0x20 DUP2 SWAP1 MSTORE PUSH1 0x40 SWAP1 KECCAK256 PUSH1 0x1 ADD SLOAD PUSH2 0x7FE DUP2 PUSH2 0x808 JUMP JUMPDEST PUSH2 0x478 DUP4 DUP4 PUSH2 0x815 JUMP JUMPDEST PUSH2 0x812 DUP2 CALLER PUSH2 0xCA2 JUMP JUMPDEST POP JUMP JUMPDEST PUSH1 0x0 PUSH2 0x821 DUP4 DUP4 PUSH2 0x7BA JUMP JUMPDEST ISZERO PUSH2 0x880 JUMPI PUSH1 0x0 DUP4 DUP2 MSTORE PUSH1 0x20 DUP2 DUP2 MSTORE PUSH1 0x40 DUP1 DUP4 KECCAK256 PUSH1 0x1 PUSH1 0x1 PUSH1 0xA0 SHL SUB DUP7 AND DUP1 DUP6 MSTORE SWAP3 MSTORE DUP1 DUP4 KECCAK256 DUP1 SLOAD PUSH1 0xFF NOT AND SWAP1 SSTORE MLOAD CALLER SWAP3 DUP7 SWAP2 PUSH32 0xF6391F5C32D9C69D2A47EA670B442974B53935D1EDC7FD64EB21E047A839171B SWAP2 SWAP1 LOG4 POP PUSH1 0x1 PUSH2 0x2AD JUMP JUMPDEST POP PUSH1 0x0 PUSH2 0x2AD JUMP JUMPDEST PUSH1 0x0 PUSH1 0x1 PUSH1 0xFF SHL DUP3 LT PUSH2 0x89A JUMPI PUSH1 0x0 DUP1 REVERT JUMPDEST POP SWAP1 JUMP JUMPDEST PUSH1 0x0 DUP1 PUSH1 0x0 DUP1 PUSH1 0x0 PUSH2 0x8B0 DUP10 DUP10 PUSH2 0xCDF JUMP JUMPDEST SWAP3 POP POP SWAP2 POP DUP6 PUSH2 0x8D4 JUMPI DUP2 PUSH1 0x1 PUSH1 0x1 PUSH1 0xA0 SHL SUB AND DUP2 PUSH1 0x1 PUSH1 0x1 PUSH1 0xA0 SHL SUB AND LT PUSH2 0x8EA JUMP JUMPDEST DUP1 PUSH1 0x1 PUSH1 0x1 PUSH1 0xA0 SHL SUB AND DUP3 PUSH1 0x1 PUSH1 0x1 PUSH1 0xA0 SHL SUB AND LT JUMPDEST PUSH1 0x1 SLOAD SWAP1 SWAP4 POP PUSH1 0x1 PUSH1 0x1 PUSH1 0xA0 SHL SUB AND PUSH4 0x128ACB08 DUP12 DUP6 DUP15 DUP2 PUSH2 0x92A JUMPI PUSH2 0x925 PUSH1 0x1 PUSH20 0xFFFD8963EFD1FC6A506488495D951D5263988D26 PUSH2 0x111D JUMP JUMPDEST PUSH2 0x93A JUMP JUMPDEST PUSH2 0x93A PUSH5 0x1000276A3 PUSH1 0x1 PUSH2 0x1144 JUMP JUMPDEST DUP15 DUP15 DUP15 PUSH1 0x40 MLOAD PUSH1 0x20 ADD PUSH2 0x94F SWAP4 SWAP3 SWAP2 SWAP1 PUSH2 0x1164 JUMP JUMPDEST PUSH1 0x40 MLOAD PUSH1 0x20 DUP2 DUP4 SUB SUB DUP2 MSTORE SWAP1 PUSH1 0x40 MSTORE PUSH1 0x40 MLOAD DUP7 PUSH4 0xFFFFFFFF AND PUSH1 0xE0 SHL DUP2 MSTORE PUSH1 0x4 ADD PUSH2 0x97E SWAP6 SWAP5 SWAP4 SWAP3 SWAP2 SWAP1 PUSH2 0x1190 JUMP JUMPDEST PUSH1 0x40 DUP1 MLOAD DUP1 DUP4 SUB DUP2 PUSH1 0x0 DUP8 GAS CALL ISZERO DUP1 ISZERO PUSH2 0x99C JUMPI RETURNDATASIZE PUSH1 0x0 DUP1 RETURNDATACOPY RETURNDATASIZE PUSH1 0x0 REVERT JUMPDEST POP POP POP POP PUSH1 0x40 MLOAD RETURNDATASIZE PUSH1 0x1F NOT PUSH1 0x1F DUP3 ADD AND DUP3 ADD DUP1 PUSH1 0x40 MSTORE POP DUP2 ADD SWAP1 PUSH2 0x9C0 SWAP2 SWAP1 PUSH2 0x120B JUMP JUMPDEST SWAP1 SWAP13 SWAP1 SWAP12 POP SWAP3 SWAP10 POP SWAP2 SWAP8 POP POP POP POP POP POP POP POP JUMP JUMPDEST PUSH1 0x0 DUP5 SGT ISZERO DUP1 ISZERO PUSH2 0x9E6 JUMPI POP PUSH1 0x0 DUP4 SGT ISZERO JUMPDEST ISZERO PUSH2 0xA23 JUMPI PUSH1 0x40 MLOAD PUSH3 0x461BCD PUSH1 0xE5 SHL DUP2 MSTORE PUSH1 0x20 PUSH1 0x4 DUP3 ADD MSTORE PUSH1 0xD PUSH1 0x24 DUP3 ADD MSTORE PUSH13 0x64656C7461206973207A65726F PUSH1 0x98 SHL PUSH1 0x44 DUP3 ADD MSTORE PUSH1 0x64 ADD PUSH2 0x40E JUMP JUMPDEST CALLDATASIZE PUSH1 0x0 PUSH2 0xA31 DUP5 DUP5 DUP4 PUSH2 0xBFA JUMP JUMPDEST SWAP2 POP SWAP2 POP PUSH1 0x0 DUP1 PUSH2 0xA42 DUP5 DUP5 PUSH2 0xCDF JUMP JUMPDEST SWAP3 POP POP SWAP2 POP PUSH1 0x0 DUP1 PUSH1 0x0 DUP11 SGT PUSH2 0xA6D JUMPI DUP4 PUSH1 0x1 PUSH1 0x1 PUSH1 0xA0 SHL SUB AND DUP4 PUSH1 0x1 PUSH1 0x1 PUSH1 0xA0 SHL SUB AND LT DUP10 PUSH2 0xA84 JUMP JUMPDEST DUP3 PUSH1 0x1 PUSH1 0x1 PUSH1 0xA0 SHL SUB AND DUP5 PUSH1 0x1 PUSH1 0x1 PUSH1 0xA0 SHL SUB AND LT DUP11 JUMPDEST SWAP2 POP SWAP2 POP DUP2 ISZERO PUSH2 0xB17 JUMPI PUSH1 0x4 DUP1 SLOAD PUSH1 0x40 MLOAD PUSH4 0x23B872DD PUSH1 0xE0 SHL DUP2 MSTORE PUSH1 0x1 PUSH1 0x1 PUSH1 0xA0 SHL SUB SWAP2 DUP3 AND SWAP3 DUP2 ADD SWAP3 SWAP1 SWAP3 MSTORE CALLER PUSH1 0x24 DUP4 ADD MSTORE PUSH1 0x44 DUP3 ADD DUP4 SWAP1 MSTORE DUP6 SWAP2 SWAP1 DUP3 AND SWAP1 PUSH4 0x23B872DD SWAP1 PUSH1 0x64 ADD PUSH1 0x20 PUSH1 0x40 MLOAD DUP1 DUP4 SUB DUP2 PUSH1 0x0 DUP8 GAS CALL ISZERO DUP1 ISZERO PUSH2 0xAEC JUMPI RETURNDATASIZE PUSH1 0x0 DUP1 RETURNDATACOPY RETURNDATASIZE PUSH1 0x0 REVERT JUMPDEST POP POP POP POP PUSH1 0x40 MLOAD RETURNDATASIZE PUSH1 0x1F NOT PUSH1 0x1F DUP3 ADD AND DUP3 ADD DUP1 PUSH1 0x40 MSTORE POP DUP2 ADD SWAP1 PUSH2 0xB10 SWAP2 SWAP1 PUSH2 0x122F JUMP JUMPDEST POP POP PUSH2 0xBEE JUMP JUMPDEST PUSH1 0x5 SLOAD DUP2 GT ISZERO PUSH2 0xB69 JUMPI PUSH1 0x40 MLOAD PUSH3 0x461BCD PUSH1 0xE5 SHL DUP2 MSTORE PUSH1 0x20 PUSH1 0x4 DUP3 ADD MSTORE PUSH1 0x19 PUSH1 0x24 DUP3 ADD MSTORE PUSH32 0x496E76616C696420746F206D7563682072657175657374656400000000000000 PUSH1 0x44 DUP3 ADD MSTORE PUSH1 0x64 ADD PUSH2 0x40E JUMP JUMPDEST PUSH1 0x4 DUP1 SLOAD PUSH1 0x40 MLOAD PUSH4 0x23B872DD PUSH1 0xE0 SHL DUP2 MSTORE PUSH1 0x1 PUSH1 0x1 PUSH1 0xA0 SHL SUB SWAP2 DUP3 AND SWAP3 DUP2 ADD SWAP3 SWAP1 SWAP3 MSTORE CALLER PUSH1 0x24 DUP4 ADD MSTORE PUSH1 0x44 DUP3 ADD DUP4 SWAP1 MSTORE DUP5 SWAP2 SWAP1 DUP3 AND SWAP1 PUSH4 0x23B872DD SWAP1 PUSH1 0x64 ADD PUSH1 0x20 PUSH1 0x40 MLOAD DUP1 DUP4 SUB DUP2 PUSH1 0x0 DUP8 GAS CALL ISZERO DUP1 ISZERO PUSH2 0xBC7 JUMPI RETURNDATASIZE PUSH1 0x0 DUP1 RETURNDATACOPY RETURNDATASIZE PUSH1 0x0 REVERT JUMPDEST POP POP POP POP PUSH1 0x40 MLOAD RETURNDATASIZE PUSH1 0x1F NOT PUSH1 0x1F DUP3 ADD AND DUP3 ADD DUP1 PUSH1 0x40 MSTORE POP DUP2 ADD SWAP1 PUSH2 0xBEB SWAP2 SWAP1 PUSH2 0x122F JUMP JUMPDEST POP POP JUMPDEST POP POP POP POP POP POP POP POP POP POP JUMP JUMPDEST CALLDATASIZE PUSH1 0x0 DUP1 PUSH1 0x0 PUSH2 0xC0B DUP8 DUP8 DUP8 PUSH2 0xD3B JUMP JUMPDEST SWAP9 SWAP1 SWAP8 POP SWAP6 POP POP POP POP POP POP JUMP JUMPDEST PUSH1 0x0 PUSH2 0xC24 DUP4 DUP4 PUSH2 0x7BA JUMP JUMPDEST PUSH2 0x880 JUMPI PUSH1 0x0 DUP4 DUP2 MSTORE PUSH1 0x20 DUP2 DUP2 MSTORE PUSH1 0x40 DUP1 DUP4 KECCAK256 PUSH1 0x1 PUSH1 0x1 PUSH1 0xA0 SHL SUB DUP7 AND DUP5 MSTORE SWAP1 SWAP2 MSTORE SWAP1 KECCAK256 DUP1 SLOAD PUSH1 0xFF NOT AND PUSH1 0x1 OR SWAP1 SSTORE PUSH2 0xC5A CALLER SWAP1 JUMP JUMPDEST PUSH1 0x1 PUSH1 0x1 PUSH1 0xA0 SHL SUB AND DUP3 PUSH1 0x1 PUSH1 0x1 PUSH1 0xA0 SHL SUB AND DUP5 PUSH32 0x2F8788117E7EFF1D82E926EC794901D17C78024A50270940304540A733656F0D PUSH1 0x40 MLOAD PUSH1 0x40 MLOAD DUP1 SWAP2 SUB SWAP1 LOG4 POP PUSH1 0x1 PUSH2 0x2AD JUMP JUMPDEST PUSH2 0xCAC DUP3 DUP3 PUSH2 0x7BA JUMP JUMPDEST PUSH2 0xCDB JUMPI PUSH1 0x40 MLOAD PUSH4 0xE2517D3F PUSH1 0xE0 SHL DUP2 MSTORE PUSH1 0x1 PUSH1 0x1 PUSH1 0xA0 SHL SUB DUP3 AND PUSH1 0x4 DUP3 ADD MSTORE PUSH1 0x24 DUP2 ADD DUP4 SWAP1 MSTORE PUSH1 0x44 ADD PUSH2 0x40E JUMP JUMPDEST POP POP JUMP JUMPDEST PUSH1 0x0 DUP1 DUP1 PUSH1 0x14 PUSH2 0xCF0 PUSH1 0x3 DUP3 PUSH2 0x1251 JUMP JUMPDEST PUSH2 0xCFA SWAP2 SWAP1 PUSH2 0x1251 JUMP JUMPDEST DUP5 LT ISZERO PUSH2 0xD1A JUMPI PUSH1 0x40 MLOAD PUSH4 0x3B99B53D PUSH1 0xE0 SHL DUP2 MSTORE PUSH1 0x4 ADD PUSH1 0x40 MLOAD DUP1 SWAP2 SUB SWAP1 REVERT JUMPDEST POP POP POP DUP2 CALLDATALOAD PUSH1 0x60 DUP2 DUP2 SHR SWAP5 PUSH1 0x48 SWAP3 SWAP1 SWAP3 SHR PUSH3 0xFFFFFF AND SWAP4 PUSH1 0x17 ADD CALLDATALOAD SWAP1 SHR SWAP2 POP JUMP JUMPDEST PUSH1 0x5 DUP2 SWAP1 SHL DUP4 ADD CALLDATALOAD DUP4 ADD DUP1 CALLDATALOAD SWAP1 PUSH1 0x20 DUP1 DUP3 ADD SWAP2 DUP7 SWAP1 SUB ADD PUSH2 0xD5C DUP2 DUP5 PUSH2 0x1251 JUMP JUMPDEST DUP6 LT ISZERO PUSH2 0xD7C JUMPI PUSH1 0x40 MLOAD PUSH4 0x3B99B53D PUSH1 0xE0 SHL DUP2 MSTORE PUSH1 0x4 ADD PUSH1 0x40 MLOAD DUP1 SWAP2 SUB SWAP1 REVERT JUMPDEST POP SWAP4 POP SWAP4 SWAP2 POP POP JUMP JUMPDEST PUSH1 0x40 MLOAD DUP1 PUSH1 0x60 ADD PUSH1 0x40 MSTORE DUP1 PUSH1 0x3 SWAP1 PUSH1 0x20 DUP3 MUL DUP1 CALLDATASIZE DUP4 CALLDATACOPY POP SWAP2 SWAP3 SWAP2 POP POP JUMP JUMPDEST PUSH1 0x0 PUSH1 0x20 DUP3 DUP5 SUB SLT ISZERO PUSH2 0xDB5 JUMPI PUSH1 0x0 DUP1 REVERT JUMPDEST DUP2 CALLDATALOAD PUSH1 0x1 PUSH1 0x1 PUSH1 0xE0 SHL SUB NOT DUP2 AND DUP2 EQ PUSH2 0xDCD JUMPI PUSH1 0x0 DUP1 REVERT JUMPDEST SWAP4 SWAP3 POP POP POP JUMP JUMPDEST PUSH1 0x60 DUP2 ADD DUP2 DUP4 PUSH1 0x0 JUMPDEST PUSH1 0x3 DUP2 LT ISZERO PUSH2 0xE05 JUMPI DUP2 MLOAD PUSH1 0x1 PUSH1 0x1 PUSH1 0xA0 SHL SUB AND DUP4 MSTORE PUSH1 0x20 SWAP3 DUP4 ADD SWAP3 SWAP1 SWAP2 ADD SWAP1 PUSH1 0x1 ADD PUSH2 0xDDD JUMP JUMPDEST POP POP POP SWAP3 SWAP2 POP POP JUMP JUMPDEST PUSH4 0x4E487B71 PUSH1 0xE0 SHL PUSH1 0x0 MSTORE PUSH1 0x41 PUSH1 0x4 MSTORE PUSH1 0x24 PUSH1 0x0 REVERT JUMPDEST PUSH1 0x1 PUSH1 0x1 PUSH1 0xA0 SHL SUB DUP2 AND DUP2 EQ PUSH2 0x812 JUMPI PUSH1 0x0 DUP1 REVERT JUMPDEST DUP1 CALLDATALOAD PUSH2 0xE44 DUP2 PUSH2 0xE24 JUMP JUMPDEST SWAP2 SWAP1 POP JUMP JUMPDEST PUSH1 0x0 PUSH1 0x20 DUP1 DUP4 DUP6 SUB SLT ISZERO PUSH2 0xE5C JUMPI PUSH1 0x0 DUP1 REVERT JUMPDEST DUP3 CALLDATALOAD PUSH8 0xFFFFFFFFFFFFFFFF DUP1 DUP3 GT ISZERO PUSH2 0xE74 JUMPI PUSH1 0x0 DUP1 REVERT JUMPDEST DUP2 DUP6 ADD SWAP2 POP DUP6 PUSH1 0x1F DUP4 ADD SLT PUSH2 0xE88 JUMPI PUSH1 0x0 DUP1 REVERT JUMPDEST DUP2 CALLDATALOAD DUP2 DUP2 GT ISZERO PUSH2 0xE9A JUMPI PUSH2 0xE9A PUSH2 0xE0E JUMP JUMPDEST DUP1 PUSH1 0x5 SHL PUSH1 0x40 MLOAD PUSH1 0x1F NOT PUSH1 0x3F DUP4 ADD AND DUP2 ADD DUP2 DUP2 LT DUP6 DUP3 GT OR ISZERO PUSH2 0xEBF JUMPI PUSH2 0xEBF PUSH2 0xE0E JUMP JUMPDEST PUSH1 0x40 MSTORE SWAP2 DUP3 MSTORE DUP5 DUP3 ADD SWAP3 POP DUP4 DUP2 ADD DUP6 ADD SWAP2 DUP9 DUP4 GT ISZERO PUSH2 0xEDD JUMPI PUSH1 0x0 DUP1 REVERT JUMPDEST SWAP4 DUP6 ADD SWAP4 JUMPDEST DUP3 DUP6 LT ISZERO PUSH2 0xF02 JUMPI PUSH2 0xEF3 DUP6 PUSH2 0xE39 JUMP JUMPDEST DUP5 MSTORE SWAP4 DUP6 ADD SWAP4 SWAP3 DUP6 ADD SWAP3 PUSH2 0xEE2 JUMP JUMPDEST SWAP9 SWAP8 POP POP POP POP POP POP POP POP JUMP JUMPDEST PUSH1 0x0 DUP1 DUP4 PUSH1 0x1F DUP5 ADD SLT PUSH2 0xF20 JUMPI PUSH1 0x0 DUP1 REVERT JUMPDEST POP DUP2 CALLDATALOAD PUSH8 0xFFFFFFFFFFFFFFFF DUP2 GT ISZERO PUSH2 0xF38 JUMPI PUSH1 0x0 DUP1 REVERT JUMPDEST PUSH1 0x20 DUP4 ADD SWAP2 POP DUP4 PUSH1 0x20 DUP3 DUP6 ADD ADD GT ISZERO PUSH2 0x497 JUMPI PUSH1 0x0 DUP1 REVERT JUMPDEST PUSH1 0x0 DUP1 PUSH1 0x0 DUP1 PUSH1 0x60 DUP6 DUP8 SUB SLT ISZERO PUSH2 0xF66 JUMPI PUSH1 0x0 DUP1 REVERT JUMPDEST DUP5 CALLDATALOAD SWAP4 POP PUSH1 0x20 DUP6 ADD CALLDATALOAD SWAP3 POP PUSH1 0x40 DUP6 ADD CALLDATALOAD PUSH8 0xFFFFFFFFFFFFFFFF DUP2 GT ISZERO PUSH2 0xF8B JUMPI PUSH1 0x0 DUP1 REVERT JUMPDEST PUSH2 0xF97 DUP8 DUP3 DUP9 ADD PUSH2 0xF0E JUMP JUMPDEST SWAP6 SWAP9 SWAP5 SWAP8 POP SWAP6 POP POP POP POP JUMP JUMPDEST PUSH1 0x0 PUSH1 0x20 DUP3 DUP5 SUB SLT ISZERO PUSH2 0xFB5 JUMPI PUSH1 0x0 DUP1 REVERT JUMPDEST POP CALLDATALOAD SWAP2 SWAP1 POP JUMP JUMPDEST PUSH1 0x0 DUP1 PUSH1 0x20 DUP4 DUP6 SUB SLT ISZERO PUSH2 0xFCF JUMPI PUSH1 0x0 DUP1 REVERT JUMPDEST DUP3 CALLDATALOAD PUSH8 0xFFFFFFFFFFFFFFFF DUP2 GT ISZERO PUSH2 0xFE6 JUMPI PUSH1 0x0 DUP1 REVERT JUMPDEST PUSH2 0xFF2 DUP6 DUP3 DUP7 ADD PUSH2 0xF0E JUMP JUMPDEST SWAP1 SWAP7 SWAP1 SWAP6 POP SWAP4 POP POP POP POP JUMP JUMPDEST DUP2 DUP4 MSTORE DUP2 DUP2 PUSH1 0x20 DUP6 ADD CALLDATACOPY POP PUSH1 0x0 DUP3 DUP3 ADD PUSH1 0x20 SWAP1 DUP2 ADD SWAP2 SWAP1 SWAP2 MSTORE PUSH1 0x1F SWAP1 SWAP2 ADD PUSH1 0x1F NOT AND SWAP1 SWAP2 ADD ADD SWAP1 JUMP JUMPDEST PUSH1 0x20 DUP2 MSTORE PUSH1 0x0 PUSH2 0x103B PUSH1 0x20 DUP4 ADD DUP5 DUP7 PUSH2 0xFFE JUMP JUMPDEST SWAP5 SWAP4 POP POP POP POP JUMP JUMPDEST PUSH1 0x0 DUP1 PUSH1 0x40 DUP4 DUP6 SUB SLT ISZERO PUSH2 0x1056 JUMPI PUSH1 0x0 DUP1 REVERT JUMPDEST DUP3 CALLDATALOAD SWAP2 POP PUSH1 0x20 DUP4 ADD CALLDATALOAD PUSH2 0x1068 DUP2 PUSH2 0xE24 JUMP JUMPDEST DUP1 SWAP2 POP POP SWAP3 POP SWAP3 SWAP1 POP JUMP JUMPDEST PUSH1 0x0 PUSH1 0x20 DUP3 DUP5 SUB SLT ISZERO PUSH2 0x1085 JUMPI PUSH1 0x0 DUP1 REVERT JUMPDEST DUP2 CALLDATALOAD PUSH2 0xDCD DUP2 PUSH2 0xE24 JUMP JUMPDEST PUSH1 0x60 DUP2 ADD DUP2 DUP4 PUSH1 0x0 JUMPDEST PUSH1 0x3 DUP2 LT ISZERO PUSH2 0xE05 JUMPI DUP2 MLOAD DUP4 MSTORE PUSH1 0x20 SWAP3 DUP4 ADD SWAP3 SWAP1 SWAP2 ADD SWAP1 PUSH1 0x1 ADD PUSH2 0x1099 JUMP JUMPDEST PUSH4 0x4E487B71 PUSH1 0xE0 SHL PUSH1 0x0 MSTORE PUSH1 0x32 PUSH1 0x4 MSTORE PUSH1 0x24 PUSH1 0x0 REVERT JUMPDEST PUSH4 0x4E487B71 PUSH1 0xE0 SHL PUSH1 0x0 MSTORE PUSH1 0x11 PUSH1 0x4 MSTORE PUSH1 0x24 PUSH1 0x0 REVERT JUMPDEST PUSH1 0x0 PUSH1 0x1 PUSH1 0xFF SHL DUP3 ADD PUSH2 0x10F9 JUMPI PUSH2 0x10F9 PUSH2 0x10CE JUMP JUMPDEST POP PUSH1 0x0 SUB SWAP1 JUMP JUMPDEST PUSH1 0x0 PUSH1 0x20 DUP3 DUP5 SUB SLT ISZERO PUSH2 0x1112 JUMPI PUSH1 0x0 DUP1 REVERT JUMPDEST DUP2 MLOAD PUSH2 0xDCD DUP2 PUSH2 0xE24 JUMP JUMPDEST PUSH1 0x1 PUSH1 0x1 PUSH1 0xA0 SHL SUB DUP3 DUP2 AND DUP3 DUP3 AND SUB SWAP1 DUP1 DUP3 GT ISZERO PUSH2 0x113D JUMPI PUSH2 0x113D PUSH2 0x10CE JUMP JUMPDEST POP SWAP3 SWAP2 POP POP JUMP JUMPDEST PUSH1 0x1 PUSH1 0x1 PUSH1 0xA0 SHL SUB DUP2 DUP2 AND DUP4 DUP3 AND ADD SWAP1 DUP1 DUP3 GT ISZERO PUSH2 0x113D JUMPI PUSH2 0x113D PUSH2 0x10CE JUMP JUMPDEST PUSH1 0x40 DUP2 MSTORE PUSH1 0x0 PUSH2 0x1178 PUSH1 0x40 DUP4 ADD DUP6 DUP8 PUSH2 0xFFE JUMP JUMPDEST SWAP1 POP PUSH1 0x1 DUP1 PUSH1 0xA0 SHL SUB DUP4 AND PUSH1 0x20 DUP4 ADD MSTORE SWAP5 SWAP4 POP POP POP POP JUMP JUMPDEST PUSH1 0x0 PUSH1 0x1 DUP1 PUSH1 0xA0 SHL SUB DUP1 DUP9 AND DUP4 MSTORE PUSH1 0x20 DUP8 ISZERO ISZERO PUSH1 0x20 DUP6 ADD MSTORE DUP7 PUSH1 0x40 DUP6 ADD MSTORE DUP2 DUP7 AND PUSH1 0x60 DUP6 ADD MSTORE PUSH1 0xA0 PUSH1 0x80 DUP6 ADD MSTORE DUP5 MLOAD SWAP2 POP DUP2 PUSH1 0xA0 DUP6 ADD MSTORE PUSH1 0x0 JUMPDEST DUP3 DUP2 LT ISZERO PUSH2 0x11E6 JUMPI DUP6 DUP2 ADD DUP3 ADD MLOAD DUP6 DUP3 ADD PUSH1 0xC0 ADD MSTORE DUP2 ADD PUSH2 0x11CA JUMP JUMPDEST POP POP PUSH1 0x0 PUSH1 0xC0 DUP3 DUP6 ADD ADD MSTORE PUSH1 0xC0 PUSH1 0x1F NOT PUSH1 0x1F DUP4 ADD AND DUP5 ADD ADD SWAP2 POP POP SWAP7 SWAP6 POP POP POP POP POP POP JUMP JUMPDEST PUSH1 0x0 DUP1 PUSH1 0x40 DUP4 DUP6 SUB SLT ISZERO PUSH2 0x121E JUMPI PUSH1 0x0 DUP1 REVERT JUMPDEST POP POP DUP1 MLOAD PUSH1 0x20 SWAP1 SWAP2 ADD MLOAD SWAP1 SWAP3 SWAP1 SWAP2 POP JUMP JUMPDEST PUSH1 0x0 PUSH1 0x20 DUP3 DUP5 SUB SLT ISZERO PUSH2 0x1241 JUMPI PUSH1 0x0 DUP1 REVERT JUMPDEST DUP2 MLOAD DUP1 ISZERO ISZERO DUP2 EQ PUSH2 0xDCD JUMPI PUSH1 0x0 DUP1 REVERT JUMPDEST DUP1 DUP3 ADD DUP1 DUP3 GT ISZERO PUSH2 0x2AD JUMPI PUSH2 0x2AD PUSH2 0x10CE JUMP INVALID 0xF SDIV PUSH24 0x625B6F3A828F1556DE6CD4F7C7D5F4FC58549B227F1BB8CF SSTORE 0x24 PUSH17 0x6C2BA2646970667358221220E3B085CBEE SIGNEXTEND 0x4F PUSH3 0xF7E9ED 0xD5 0xC2 SDIV 0xBC 0xE9 DUP9 0x29 0xE7 0x22 DUP7 0xEE 0xEE 0x4F ORIGIN 0x2B LOG2 0xF7 0xB2 SWAP4 SWAP2 0xC PUSH5 0x736F6C6343 STOP ADDMOD XOR STOP CALLER 0xAF 0x29 0xD DUP7 DUP1 DUP3 EXP 0xAD SWAP3 0x28 SSTORE RETURN SWAP12 ADDRESS PUSH1 0x97 0xB2 0xE 0x28 PUSH24 0x4D6C1AD35A20325630C3A02C0F0577625B6F3A828F1556DE PUSH13 0xD4F7C7D5F4FC58549B227F1BB8 0xCF SSTORE 0x24 PUSH17 0x6C2B000000000000000000000000000000 "
        },
        "methodIdentifiers": {
          "DEFAULT_ADMIN_ROLE()": "a217fddf",
          "DecodeData(bytes)": "2967b00d",
          "buy(uint256,uint256,bytes)": "1efd73a5",
          "getPool()": "026b1d5f",
          "getRoleAdmin(bytes32)": "248a9ca3",
          "getRoles()": "71061398",
          "grantExecuters(address[])": "75d785b8",
          "grantRole(bytes32,address)": "2f2ff15d",
          "hasRole(bytes32,address)": "91d14854",
          "pancakeV3SwapCallback(int256,int256,bytes)": "23a69e75",
          "renounceRole(bytes32,address)": "36568abe",
          "revokeExecuters(address[])": "1235e9f7",
          "revokeRole(bytes32,address)": "d547741f",
          "sell(uint256,uint256,bytes)": "49a44aa1",
          "setPool(address)": "4437152a",
          "supportsInterface(bytes4)": "01ffc9a7",
          "uniswapV3SwapCallback(int256,int256,bytes)": "fa461e33"
        }
      }
    }
  }
}