{
  "contracts/BotManager.sol": {
    "BotManager": {
      "abi": [
        {
          "inputs": [
            {
              "internalType": "address",
              "name": "_whitelist",
              "type": "address"
            },
            {
              "internalType": "address",
              "name": "_pool",
              "type": "address"
            },
            {
              "internalType": "address",
              "name": "_manager",
              "type": "address"
            }
          ],
          "stateMutability": "nonpayable",
          "type": "constructor"
        },
        {
          "inputs": [],
          "name": "AccessControlBadConfirmation",
          "type": "error"
        },
        {
          "inputs": [
            {
              "internalType": "address",
              "name": "account",
              "type": "address"
            },
            {
              "internalType": "bytes32",
              "name": "neededRole",
              "type": "bytes32"
            }
          ],
          "name": "AccessControlUnauthorizedAccount",
          "type": "error"
        },
        {
          "inputs": [],
          "name": "SliceOutOfBounds",
          "type": "error"
        },
        {
          "anonymous": false,
          "inputs": [
            {
              "indexed": true,
              "internalType": "bytes32",
              "name": "role",
              "type": "bytes32"
            },
            {
              "indexed": true,
              "internalType": "bytes32",
              "name": "previousAdminRole",
              "type": "bytes32"
            },
            {
              "indexed": true,
              "internalType": "bytes32",
              "name": "newAdminRole",
              "type": "bytes32"
            }
          ],
          "name": "RoleAdminChanged",
          "type": "event"
        },
        {
          "anonymous": false,
          "inputs": [
            {
              "indexed": true,
              "internalType": "bytes32",
              "name": "role",
              "type": "bytes32"
            },
            {
              "indexed": true,
              "internalType": "address",
              "name": "account",
              "type": "address"
            },
            {
              "indexed": true,
              "internalType": "address",
              "name": "sender",
              "type": "address"
            }
          ],
          "name": "RoleGranted",
          "type": "event"
        },
        {
          "anonymous": false,
          "inputs": [
            {
              "indexed": true,
              "internalType": "bytes32",
              "name": "role",
              "type": "bytes32"
            },
            {
              "indexed": true,
              "internalType": "address",
              "name": "account",
              "type": "address"
            },
            {
              "indexed": true,
              "internalType": "address",
              "name": "sender",
              "type": "address"
            }
          ],
          "name": "RoleRevoked",
          "type": "event"
        },
        {
          "inputs": [],
          "name": "DEFAULT_ADMIN_ROLE",
          "outputs": [
            {
              "internalType": "bytes32",
              "name": "",
              "type": "bytes32"
            }
          ],
          "stateMutability": "view",
          "type": "function"
        },
        {
          "inputs": [
            {
              "internalType": "uint256",
              "name": "amountIn",
              "type": "uint256"
            },
            {
              "internalType": "uint256",
              "name": "amountOutMinimum",
              "type": "uint256"
            },
            {
              "internalType": "bytes",
              "name": "path",
              "type": "bytes"
            }
          ],
          "name": "buy",
          "outputs": [],
          "stateMutability": "nonpayable",
          "type": "function"
        },
        {
          "inputs": [
            {
              "internalType": "uint256",
              "name": "amountIn",
              "type": "uint256"
            },
            {
              "internalType": "uint256",
              "name": "amountOutMinimum",
              "type": "uint256"
            }
          ],
          "name": "buy",
          "outputs": [],
          "stateMutability": "nonpayable",
          "type": "function"
        },
        {
          "inputs": [
            {
              "internalType": "bytes",
              "name": "inputs",
              "type": "bytes"
            }
          ],
          "name": "decodeData",
          "outputs": [
            {
              "internalType": "bytes",
              "name": "",
              "type": "bytes"
            }
          ],
          "stateMutability": "pure",
          "type": "function"
        },
        {
          "inputs": [],
          "name": "getPool",
          "outputs": [
            {
              "internalType": "address[3]",
              "name": "",
              "type": "address[3]"
            },
            {
              "internalType": "bytes",
              "name": "",
              "type": "bytes"
            }
          ],
          "stateMutability": "view",
          "type": "function"
        },
        {
          "inputs": [
            {
              "internalType": "bytes32",
              "name": "role",
              "type": "bytes32"
            }
          ],
          "name": "getRoleAdmin",
          "outputs": [
            {
              "internalType": "bytes32",
              "name": "",
              "type": "bytes32"
            }
          ],
          "stateMutability": "view",
          "type": "function"
        },
        {
          "inputs": [],
          "name": "getRoles",
          "outputs": [
            {
              "internalType": "bytes32[3]",
              "name": "",
              "type": "bytes32[3]"
            }
          ],
          "stateMutability": "pure",
          "type": "function"
        },
        {
          "inputs": [
            {
              "internalType": "address[]",
              "name": "managers",
              "type": "address[]"
            }
          ],
          "name": "grantExecuters",
          "outputs": [],
          "stateMutability": "nonpayable",
          "type": "function"
        },
        {
          "inputs": [
            {
              "internalType": "bytes32",
              "name": "role",
              "type": "bytes32"
            },
            {
              "internalType": "address",
              "name": "account",
              "type": "address"
            }
          ],
          "name": "grantRole",
          "outputs": [],
          "stateMutability": "nonpayable",
          "type": "function"
        },
        {
          "inputs": [
            {
              "internalType": "bytes32",
              "name": "role",
              "type": "bytes32"
            },
            {
              "internalType": "address",
              "name": "account",
              "type": "address"
            }
          ],
          "name": "hasRole",
          "outputs": [
            {
              "internalType": "bool",
              "name": "",
              "type": "bool"
            }
          ],
          "stateMutability": "view",
          "type": "function"
        },
        {
          "inputs": [
            {
              "internalType": "address",
              "name": "user",
              "type": "address"
            }
          ],
          "name": "isExecuter",
          "outputs": [
            {
              "internalType": "bool",
              "name": "",
              "type": "bool"
            }
          ],
          "stateMutability": "view",
          "type": "function"
        },
        {
          "inputs": [
            {
              "internalType": "int256",
              "name": "amount0Delta",
              "type": "int256"
            },
            {
              "internalType": "int256",
              "name": "amount1Delta",
              "type": "int256"
            },
            {
              "internalType": "bytes",
              "name": "data",
              "type": "bytes"
            }
          ],
          "name": "pancakeV3SwapCallback",
          "outputs": [],
          "stateMutability": "nonpayable",
          "type": "function"
        },
        {
          "inputs": [
            {
              "internalType": "bytes32",
              "name": "role",
              "type": "bytes32"
            },
            {
              "internalType": "address",
              "name": "callerConfirmation",
              "type": "address"
            }
          ],
          "name": "renounceRole",
          "outputs": [],
          "stateMutability": "nonpayable",
          "type": "function"
        },
        {
          "inputs": [
            {
              "internalType": "address[]",
              "name": "managers",
              "type": "address[]"
            }
          ],
          "name": "revokeExecuters",
          "outputs": [],
          "stateMutability": "nonpayable",
          "type": "function"
        },
        {
          "inputs": [
            {
              "internalType": "bytes32",
              "name": "role",
              "type": "bytes32"
            },
            {
              "internalType": "address",
              "name": "account",
              "type": "address"
            }
          ],
          "name": "revokeRole",
          "outputs": [],
          "stateMutability": "nonpayable",
          "type": "function"
        },
        {
          "inputs": [
            {
              "internalType": "uint256",
              "name": "amountOut",
              "type": "uint256"
            },
            {
              "internalType": "uint256",
              "name": "amountInMaximum",
              "type": "uint256"
            },
            {
              "internalType": "bytes",
              "name": "path",
              "type": "bytes"
            }
          ],
          "name": "sell",
          "outputs": [],
          "stateMutability": "nonpayable",
          "type": "function"
        },
        {
          "inputs": [
            {
              "internalType": "uint256",
              "name": "amountOut",
              "type": "uint256"
            },
            {
              "internalType": "uint256",
              "name": "amountInMaximum",
              "type": "uint256"
            }
          ],
          "name": "sell",
          "outputs": [],
          "stateMutability": "nonpayable",
          "type": "function"
        },
        {
          "inputs": [
            {
              "internalType": "address",
              "name": "_pool",
              "type": "address"
            }
          ],
          "name": "setPool",
          "outputs": [],
          "stateMutability": "nonpayable",
          "type": "function"
        },
        {
          "inputs": [
            {
              "internalType": "bytes4",
              "name": "interfaceId",
              "type": "bytes4"
            }
          ],
          "name": "supportsInterface",
          "outputs": [
            {
              "internalType": "bool",
              "name": "",
              "type": "bool"
            }
          ],
          "stateMutability": "view",
          "type": "function"
        },
        {
          "inputs": [
            {
              "internalType": "int256",
              "name": "amount0Delta",
              "type": "int256"
            },
            {
              "internalType": "int256",
              "name": "amount1Delta",
              "type": "int256"
            },
            {
              "internalType": "bytes",
              "name": "data",
              "type": "bytes"
            }
          ],
          "name": "uniswapV3SwapCallback",
          "outputs": [],
          "stateMutability": "nonpayable",
          "type": "function"
        }
      ],
      "evm": {
        "bytecode": {
          "linkReferences": {},
          "object": "60806040526000196006553480156200001757600080fd5b5060405162001b0638038062001b068339810160408190526200003a91620003d6565b600580546001600160a01b031916331790556200006860008051602062001ac68339815191526000620002bf565b6200009260008051602062001ae683398151915260008051602062001ac6833981519152620002bf565b6200009f6000336200030a565b50620000bb60008051602062001ac6833981519152336200030a565b50620000d760008051602062001ae6833981519152336200030a565b50620000f360008051602062001ac6833981519152826200030a565b50600180546001600160a01b038086166001600160a01b0319928316179092556002805492851692909116821790556040805163ddca3f4360e01b8152905184929163ddca3f439160048083019260209291908290030181865afa15801562000160573d6000803e3d6000fd5b505050506040513d601f19601f8201168201806040525081019062000186919062000420565b600360146101000a81548162ffffff021916908362ffffff160217905550806001600160a01b0316630dfe16816040518163ffffffff1660e01b8152600401602060405180830381865afa158015620001e3573d6000803e3d6000fd5b505050506040513d601f19601f820116820180604052508101906200020991906200044e565b600360006101000a8154816001600160a01b0302191690836001600160a01b03160217905550806001600160a01b031663d21220a76040518163ffffffff1660e01b8152600401602060405180830381865afa1580156200026e573d6000803e3d6000fd5b505050506040513d601f19601f820116820180604052508101906200029491906200044e565b600480546001600160a01b0319166001600160a01b0392909216919091179055506200046c92505050565b600082815260208190526040808220600101805490849055905190918391839186917fbd79b86ffe0ab8e8776151514217cd7cacd52c909f66475c3af44e129f0b00ff9190a4505050565b6000828152602081815260408083206001600160a01b038516845290915281205460ff16620003af576000838152602081815260408083206001600160a01b03861684529091529020805460ff19166001179055620003663390565b6001600160a01b0316826001600160a01b0316847f2f8788117e7eff1d82e926ec794901d17c78024a50270940304540a733656f0d60405160405180910390a4506001620003b3565b5060005b92915050565b80516001600160a01b0381168114620003d157600080fd5b919050565b600080600060608486031215620003ec57600080fd5b620003f784620003b9565b92506200040760208501620003b9565b91506200041760408501620003b9565b90509250925092565b6000602082840312156200043357600080fd5b815162ffffff811681146200044757600080fd5b9392505050565b6000602082840312156200046157600080fd5b6200044782620003b9565b61164a806200047c6000396000f3fe608060405234801561001057600080fd5b506004361061012c5760003560e01c806349a44aa1116100ad578063a217fddf11610071578063a217fddf14610296578063d547741f1461029e578063d6febde8146102b1578063d79875eb146102c4578063fa461e331461019757600080fd5b806349a44aa114610235578063710613981461024857806375d785b81461025d5780638881f7f21461027057806391d148541461028357600080fd5b8063248a9ca3116100f4578063248a9ca3146101aa5780632f2ff15d146101db57806336568abe146101ee5780634437152a14610201578063447a06f51461021457600080fd5b806301ffc9a714610131578063026b1d5f146101595780631235e9f71461016f5780631efd73a51461018457806323a69e7514610197575b600080fd5b61014461013f366004611071565b6102d7565b60405190151581526020015b60405180910390f35b61016161030e565b6040516101509291906110e8565b61018261017d366004611170565b610356565b005b610182610192366004611277565b6103cb565b6101826101a5366004611277565b61049a565b6101cd6101b83660046112ca565b60009081526020819052604090206001015490565b604051908152602001610150565b6101826101e93660046112e3565b6104f6565b6101826101fc3660046112e3565b61051b565b61018261020f366004611313565b61054e565b610227610222366004611330565b610705565b60405161015092919061139b565b610182610243366004611277565b610725565b6102506107f8565b60405161015091906113af565b61018261026b366004611170565b61084e565b61014461027e366004611313565b6108be565b6101446102913660046112e3565b610975565b6101cd600081565b6101826102ac3660046112e3565b61099e565b6101826102bf3660046113e0565b6109c3565b6101826102d23660046113e0565b610a4c565b60006001600160e01b03198216637965db0b60e01b148061030857506301ffc9a760e01b6001600160e01b03198316145b92915050565b610316611053565b60408051606081810183526002546001600160a01b03908116835260035481166020840152600454169282019290925261034e610a7d565b915091509091565b7faf290d8680820aad922855f39b306097b20e28774d6c1ad35a20325630c3a02c61038081610ade565b60005b82518110156103c6576103bd6000805160206115f58339815191528483815181106103b0576103b0611402565b6020026020010151610aeb565b50600101610383565b505050565b6103d4336108be565b6103f95760405162461bcd60e51b81526004016103f090611418565b60405180910390fd5b600080600061042061040a88610b5e565b6005546001600160a01b03168787306001610b74565b9250925092506000816104335783610435565b825b61043e90611465565b9050868110156104905760405162461bcd60e51b815260206004820152601a60248201527f496e76616c696420746f206c6974746c6520726563696576656400000000000060448201526064016103f0565b5050505050505050565b6002546001600160a01b031633146104e45760405162461bcd60e51b815260206004820152600d60248201526c1bdb9b1e48199bdc881c1bdbdb609a1b60448201526064016103f0565b6104f084848484610caa565b50505050565b60008281526020819052604090206001015461051181610ade565b6104f08383610ec8565b6001600160a01b03811633146105445760405163334bd91960e11b815260040160405180910390fd5b6103c68282610aeb565b600061055981610ade565b600280546001600160a01b0319166001600160a01b03841690811790915560408051630dfe168160e01b81529051849291630dfe16819160048083019260209291908290030181865afa1580156105b4573d6000803e3d6000fd5b505050506040513d601f19601f820116820180604052508101906105d89190611481565b600360006101000a8154816001600160a01b0302191690836001600160a01b03160217905550806001600160a01b031663ddca3f436040518163ffffffff1660e01b8152600401602060405180830381865afa15801561063c573d6000803e3d6000fd5b505050506040513d601f19601f82011682018060405250810190610660919061149e565b600360146101000a81548162ffffff021916908362ffffff160217905550806001600160a01b031663d21220a76040518163ffffffff1660e01b8152600401602060405180830381865afa1580156106bc573d6000803e3d6000fd5b505050506040513d601f19601f820116820180604052508101906106e09190611481565b600480546001600160a01b0319166001600160a01b0392909216919091179055505050565b366000818161071686866003610f52565b909450925050505b9250929050565b61072e336108be565b61074a5760405162461bcd60e51b81526004016103f090611418565b60068390556000808061077e61075f88610b5e565b61076890611465565b6005546001600160a01b03168787306000610b74565b9250925092506000816107995761079484611465565b6107a2565b6107a283611465565b90508781146107e85760405162461bcd60e51b8152602060048201526012602482015271125b9d985b1a5908185b5bdd5b9d081bdd5d60721b60448201526064016103f0565b5050600019600655505050505050565b610800611053565b5060408051606081018252600081527faf290d8680820aad922855f39b306097b20e28774d6c1ad35a20325630c3a02c60208201526000805160206115f58339815191529181019190915290565b7faf290d8680820aad922855f39b306097b20e28774d6c1ad35a20325630c3a02c61087881610ade565b60005b82518110156103c6576108b56000805160206115f58339815191528483815181106108a8576108a8611402565b6020026020010151610ec8565b5060010161087b565b6000806108d96000805160206115f583398151915284610975565b60015460405163c683630d60e01b81526001600160a01b0386811660048301529293506000929091169063c683630d90602401602060405180830381865afa158015610929573d6000803e3d6000fd5b505050506040513d601f19601f8201168201806040525081019061094d91906114c3565b90506001600160a01b038416301482806109645750815b8061096c5750805b95945050505050565b6000918252602082815260408084206001600160a01b0393909316845291905290205460ff1690565b6000828152602081905260409020600101546109b981610ade565b6104f08383610aeb565b6109cc336108be565b6109e85760405162461bcd60e51b81526004016103f090611418565b30631efd73a583836109f8610a7d565b6040518463ffffffff1660e01b8152600401610a16939291906114e5565b600060405180830381600087803b158015610a3057600080fd5b505af1158015610a44573d6000803e3d6000fd5b505050505050565b610a55336108be565b610a715760405162461bcd60e51b81526004016103f090611418565b306349a44aa183836109f85b600354600454604051606083811b6bffffffffffffffffffffffff199081166020840152600160a01b90940460e81b6001600160e81b031916603483015291821b909216603783015290604b01604051602081830303815290604052905090565b610ae88133610f70565b50565b6000610af78383610975565b15610b56576000838152602081815260408083206001600160a01b0386168085529252808320805460ff1916905551339286917ff6391f5c32d9c69d2a47ea670b442974b53935d1edc7fd64eb21e047a839171b9190a4506001610308565b506000610308565b6000600160ff1b8210610b7057600080fd5b5090565b6000806000806000610b868989610fad565b925050915085610baa57816001600160a01b0316816001600160a01b031610610bc0565b806001600160a01b0316826001600160a01b0316105b6002549093506001600160a01b031663128acb088b858e81610c0057610bfb600173fffd8963efd1fc6a506488495d951d5263988d26611504565b610c10565b610c106401000276a3600161152b565b8e8e8e604051602001610c259392919061154b565b6040516020818303038152906040526040518663ffffffff1660e01b8152600401610c54959493929190611577565b60408051808303816000875af1158015610c72573d6000803e3d6000fd5b505050506040513d601f19601f82011682018060405250810190610c9691906115bd565b909c909b5092995091975050505050505050565b60008413158015610cbc575060008313155b15610cf95760405162461bcd60e51b815260206004820152600d60248201526c64656c7461206973207a65726f60981b60448201526064016103f0565b366000610d07848483610f52565b91509150600080610d188484610fad565b925050915060008060008a13610d4357836001600160a01b0316836001600160a01b03161089610d5a565b826001600160a01b0316846001600160a01b0316108a5b915091508115610de9576005546040516323b872dd60e01b81526001600160a01b0391821660048201523360248201526044810183905285918216906323b872dd906064016020604051808303816000875af1158015610dbe573d6000803e3d6000fd5b505050506040513d601f19601f82011682018060405250810190610de291906114c3565b5050610ebc565b600654811115610e3b5760405162461bcd60e51b815260206004820152601960248201527f496e76616c696420746f206d756368207265717565737465640000000000000060448201526064016103f0565b6005546040516323b872dd60e01b81526001600160a01b0391821660048201523360248201526044810183905284918216906323b872dd906064016020604051808303816000875af1158015610e95573d6000803e3d6000fd5b505050506040513d601f19601f82011682018060405250810190610eb991906114c3565b50505b50505050505050505050565b6000610ed48383610975565b610b56576000838152602081815260408083206001600160a01b03861684529091529020805460ff19166001179055610f0a3390565b6001600160a01b0316826001600160a01b0316847f2f8788117e7eff1d82e926ec794901d17c78024a50270940304540a733656f0d60405160405180910390a4506001610308565b366000806000610f63878787611009565b9890975095505050505050565b610f7a8282610975565b610fa95760405163e2517d3f60e01b81526001600160a01b0382166004820152602481018390526044016103f0565b5050565b600080806014610fbe6003826115e1565b610fc891906115e1565b841015610fe857604051633b99b53d60e01b815260040160405180910390fd5b5050508135606081811c9460489290921c62ffffff169360170135901c9150565b600581901b83013583018035906020808201918690030161102a81846115e1565b85101561104a57604051633b99b53d60e01b815260040160405180910390fd5b50935093915050565b60405180606001604052806003906020820280368337509192915050565b60006020828403121561108357600080fd5b81356001600160e01b03198116811461109b57600080fd5b9392505050565b6000815180845260005b818110156110c8576020818501810151868301820152016110ac565b506000602082860101526020601f19601f83011685010191505092915050565b60008184825b60038110156111165781516001600160a01b03168352602092830192909101906001016110ee565b5050506080606083015261112d60808301846110a2565b949350505050565b634e487b7160e01b600052604160045260246000fd5b6001600160a01b0381168114610ae857600080fd5b803561116b8161114b565b919050565b6000602080838503121561118357600080fd5b823567ffffffffffffffff8082111561119b57600080fd5b818501915085601f8301126111af57600080fd5b8135818111156111c1576111c1611135565b8060051b604051601f19603f830116810181811085821117156111e6576111e6611135565b60405291825284820192508381018501918883111561120457600080fd5b938501935b828510156112295761121a85611160565b84529385019392850192611209565b98975050505050505050565b60008083601f84011261124757600080fd5b50813567ffffffffffffffff81111561125f57600080fd5b60208301915083602082850101111561071e57600080fd5b6000806000806060858703121561128d57600080fd5b8435935060208501359250604085013567ffffffffffffffff8111156112b257600080fd5b6112be87828801611235565b95989497509550505050565b6000602082840312156112dc57600080fd5b5035919050565b600080604083850312156112f657600080fd5b8235915060208301356113088161114b565b809150509250929050565b60006020828403121561132557600080fd5b813561109b8161114b565b6000806020838503121561134357600080fd5b823567ffffffffffffffff81111561135a57600080fd5b61136685828601611235565b90969095509350505050565b81835281816020850137506000828201602090810191909152601f909101601f19169091010190565b60208152600061112d602083018486611372565b60608101818360005b60038110156113d75781518352602092830192909101906001016113b8565b50505092915050565b600080604083850312156113f357600080fd5b50508035926020909101359150565b634e487b7160e01b600052603260045260246000fd5b6020808252601a908201527f53656e64657220686173206e6f74207065726d697373696f6e73000000000000604082015260600190565b634e487b7160e01b600052601160045260246000fd5b6000600160ff1b820161147a5761147a61144f565b5060000390565b60006020828403121561149357600080fd5b815161109b8161114b565b6000602082840312156114b057600080fd5b815162ffffff8116811461109b57600080fd5b6000602082840312156114d557600080fd5b8151801515811461109b57600080fd5b83815282602082015260606040820152600061096c60608301846110a2565b6001600160a01b038281168282160390808211156115245761152461144f565b5092915050565b6001600160a01b038181168382160190808211156115245761152461144f565b60408152600061155f604083018587611372565b905060018060a01b0383166020830152949350505050565b6001600160a01b0386811682528515156020830152604082018590528316606082015260a0608082018190526000906115b2908301846110a2565b979650505050505050565b600080604083850312156115d057600080fd5b505080516020909101519092909150565b808201808211156103085761030861144f56fe0f0577625b6f3a828f1556de6cd4f7c7d5f4fc58549b227f1bb8cf5524706c2ba26469706673582212204a742d0a692b2e6ae2e0e04d35ff5d6c03b0621cacd46ac9d4054c481025500164736f6c63430008180033af290d8680820aad922855f39b306097b20e28774d6c1ad35a20325630c3a02c0f0577625b6f3a828f1556de6cd4f7c7d5f4fc58549b227f1bb8cf5524706c2b",
          "opcodes": "PUSH1 0x80 PUSH1 0x40 MSTORE PUSH1 0x0 NOT PUSH1 0x6 SSTORE CALLVALUE DUP1 ISZERO PUSH3 0x17 JUMPI PUSH1 0x0 DUP1 REVERT JUMPDEST POP PUSH1 0x40 MLOAD PUSH3 0x1B06 CODESIZE SUB DUP1 PUSH3 0x1B06 DUP4 CODECOPY DUP2 ADD PUSH1 0x40 DUP2 SWAP1 MSTORE PUSH3 0x3A SWAP2 PUSH3 0x3D6 JUMP JUMPDEST PUSH1 0x5 DUP1 SLOAD PUSH1 0x1 PUSH1 0x1 PUSH1 0xA0 SHL SUB NOT AND CALLER OR SWAP1 SSTORE PUSH3 0x68 PUSH1 0x0 DUP1 MLOAD PUSH1 0x20 PUSH3 0x1AC6 DUP4 CODECOPY DUP2 MLOAD SWAP2 MSTORE PUSH1 0x0 PUSH3 0x2BF JUMP JUMPDEST PUSH3 0x92 PUSH1 0x0 DUP1 MLOAD PUSH1 0x20 PUSH3 0x1AE6 DUP4 CODECOPY DUP2 MLOAD SWAP2 MSTORE PUSH1 0x0 DUP1 MLOAD PUSH1 0x20 PUSH3 0x1AC6 DUP4 CODECOPY DUP2 MLOAD SWAP2 MSTORE PUSH3 0x2BF JUMP JUMPDEST PUSH3 0x9F PUSH1 0x0 CALLER PUSH3 0x30A JUMP JUMPDEST POP PUSH3 0xBB PUSH1 0x0 DUP1 MLOAD PUSH1 0x20 PUSH3 0x1AC6 DUP4 CODECOPY DUP2 MLOAD SWAP2 MSTORE CALLER PUSH3 0x30A JUMP JUMPDEST POP PUSH3 0xD7 PUSH1 0x0 DUP1 MLOAD PUSH1 0x20 PUSH3 0x1AE6 DUP4 CODECOPY DUP2 MLOAD SWAP2 MSTORE CALLER PUSH3 0x30A JUMP JUMPDEST POP PUSH3 0xF3 PUSH1 0x0 DUP1 MLOAD PUSH1 0x20 PUSH3 0x1AC6 DUP4 CODECOPY DUP2 MLOAD SWAP2 MSTORE DUP3 PUSH3 0x30A JUMP JUMPDEST POP PUSH1 0x1 DUP1 SLOAD PUSH1 0x1 PUSH1 0x1 PUSH1 0xA0 SHL SUB DUP1 DUP7 AND PUSH1 0x1 PUSH1 0x1 PUSH1 0xA0 SHL SUB NOT SWAP3 DUP4 AND OR SWAP1 SWAP3 SSTORE PUSH1 0x2 DUP1 SLOAD SWAP3 DUP6 AND SWAP3 SWAP1 SWAP2 AND DUP3 OR SWAP1 SSTORE PUSH1 0x40 DUP1 MLOAD PUSH4 0xDDCA3F43 PUSH1 0xE0 SHL DUP2 MSTORE SWAP1 MLOAD DUP5 SWAP3 SWAP2 PUSH4 0xDDCA3F43 SWAP2 PUSH1 0x4 DUP1 DUP4 ADD SWAP3 PUSH1 0x20 SWAP3 SWAP2 SWAP1 DUP3 SWAP1 SUB ADD DUP2 DUP7 GAS STATICCALL ISZERO DUP1 ISZERO PUSH3 0x160 JUMPI RETURNDATASIZE PUSH1 0x0 DUP1 RETURNDATACOPY RETURNDATASIZE PUSH1 0x0 REVERT JUMPDEST POP POP POP POP PUSH1 0x40 MLOAD RETURNDATASIZE PUSH1 0x1F NOT PUSH1 0x1F DUP3 ADD AND DUP3 ADD DUP1 PUSH1 0x40 MSTORE POP DUP2 ADD SWAP1 PUSH3 0x186 SWAP2 SWAP1 PUSH3 0x420 JUMP JUMPDEST PUSH1 0x3 PUSH1 0x14 PUSH2 0x100 EXP DUP2 SLOAD DUP2 PUSH3 0xFFFFFF MUL NOT AND SWAP1 DUP4 PUSH3 0xFFFFFF AND MUL OR SWAP1 SSTORE POP DUP1 PUSH1 0x1 PUSH1 0x1 PUSH1 0xA0 SHL SUB AND PUSH4 0xDFE1681 PUSH1 0x40 MLOAD DUP2 PUSH4 0xFFFFFFFF AND PUSH1 0xE0 SHL DUP2 MSTORE PUSH1 0x4 ADD PUSH1 0x20 PUSH1 0x40 MLOAD DUP1 DUP4 SUB DUP2 DUP7 GAS STATICCALL ISZERO DUP1 ISZERO PUSH3 0x1E3 JUMPI RETURNDATASIZE PUSH1 0x0 DUP1 RETURNDATACOPY RETURNDATASIZE PUSH1 0x0 REVERT JUMPDEST POP POP POP POP PUSH1 0x40 MLOAD RETURNDATASIZE PUSH1 0x1F NOT PUSH1 0x1F DUP3 ADD AND DUP3 ADD DUP1 PUSH1 0x40 MSTORE POP DUP2 ADD SWAP1 PUSH3 0x209 SWAP2 SWAP1 PUSH3 0x44E JUMP JUMPDEST PUSH1 0x3 PUSH1 0x0 PUSH2 0x100 EXP DUP2 SLOAD DUP2 PUSH1 0x1 PUSH1 0x1 PUSH1 0xA0 SHL SUB MUL NOT AND SWAP1 DUP4 PUSH1 0x1 PUSH1 0x1 PUSH1 0xA0 SHL SUB AND MUL OR SWAP1 SSTORE POP DUP1 PUSH1 0x1 PUSH1 0x1 PUSH1 0xA0 SHL SUB AND PUSH4 0xD21220A7 PUSH1 0x40 MLOAD DUP2 PUSH4 0xFFFFFFFF AND PUSH1 0xE0 SHL DUP2 MSTORE PUSH1 0x4 ADD PUSH1 0x20 PUSH1 0x40 MLOAD DUP1 DUP4 SUB DUP2 DUP7 GAS STATICCALL ISZERO DUP1 ISZERO PUSH3 0x26E JUMPI RETURNDATASIZE PUSH1 0x0 DUP1 RETURNDATACOPY RETURNDATASIZE PUSH1 0x0 REVERT JUMPDEST POP POP POP POP PUSH1 0x40 MLOAD RETURNDATASIZE PUSH1 0x1F NOT PUSH1 0x1F DUP3 ADD AND DUP3 ADD DUP1 PUSH1 0x40 MSTORE POP DUP2 ADD SWAP1 PUSH3 0x294 SWAP2 SWAP1 PUSH3 0x44E JUMP JUMPDEST PUSH1 0x4 DUP1 SLOAD PUSH1 0x1 PUSH1 0x1 PUSH1 0xA0 SHL SUB NOT AND PUSH1 0x1 PUSH1 0x1 PUSH1 0xA0 SHL SUB SWAP3 SWAP1 SWAP3 AND SWAP2 SWAP1 SWAP2 OR SWAP1 SSTORE POP PUSH3 0x46C SWAP3 POP POP POP JUMP JUMPDEST PUSH1 0x0 DUP3 DUP2 MSTORE PUSH1 0x20 DUP2 SWAP1 MSTORE PUSH1 0x40 DUP1 DUP3 KECCAK256 PUSH1 0x1 ADD DUP1 SLOAD SWAP1 DUP5 SWAP1 SSTORE SWAP1 MLOAD SWAP1 SWAP2 DUP4 SWAP2 DUP4 SWAP2 DUP7 SWAP2 PUSH32 0xBD79B86FFE0AB8E8776151514217CD7CACD52C909F66475C3AF44E129F0B00FF SWAP2 SWAP1 LOG4 POP POP POP JUMP JUMPDEST PUSH1 0x0 DUP3 DUP2 MSTORE PUSH1 0x20 DUP2 DUP2 MSTORE PUSH1 0x40 DUP1 DUP4 KECCAK256 PUSH1 0x1 PUSH1 0x1 PUSH1 0xA0 SHL SUB DUP6 AND DUP5 MSTORE SWAP1 SWAP2 MSTORE DUP2 KECCAK256 SLOAD PUSH1 0xFF AND PUSH3 0x3AF JUMPI PUSH1 0x0 DUP4 DUP2 MSTORE PUSH1 0x20 DUP2 DUP2 MSTORE PUSH1 0x40 DUP1 DUP4 KECCAK256 PUSH1 0x1 PUSH1 0x1 PUSH1 0xA0 SHL SUB DUP7 AND DUP5 MSTORE SWAP1 SWAP2 MSTORE SWAP1 KECCAK256 DUP1 SLOAD PUSH1 0xFF NOT AND PUSH1 0x1 OR SWAP1 SSTORE PUSH3 0x366 CALLER SWAP1 JUMP JUMPDEST PUSH1 0x1 PUSH1 0x1 PUSH1 0xA0 SHL SUB AND DUP3 PUSH1 0x1 PUSH1 0x1 PUSH1 0xA0 SHL SUB AND DUP5 PUSH32 0x2F8788117E7EFF1D82E926EC794901D17C78024A50270940304540A733656F0D PUSH1 0x40 MLOAD PUSH1 0x40 MLOAD DUP1 SWAP2 SUB SWAP1 LOG4 POP PUSH1 0x1 PUSH3 0x3B3 JUMP JUMPDEST POP PUSH1 0x0 JUMPDEST SWAP3 SWAP2 POP POP JUMP JUMPDEST DUP1 MLOAD PUSH1 0x1 PUSH1 0x1 PUSH1 0xA0 SHL SUB DUP2 AND DUP2 EQ PUSH3 0x3D1 JUMPI PUSH1 0x0 DUP1 REVERT JUMPDEST SWAP2 SWAP1 POP JUMP JUMPDEST PUSH1 0x0 DUP1 PUSH1 0x0 PUSH1 0x60 DUP5 DUP7 SUB SLT ISZERO PUSH3 0x3EC JUMPI PUSH1 0x0 DUP1 REVERT JUMPDEST PUSH3 0x3F7 DUP5 PUSH3 0x3B9 JUMP JUMPDEST SWAP3 POP PUSH3 0x407 PUSH1 0x20 DUP6 ADD PUSH3 0x3B9 JUMP JUMPDEST SWAP2 POP PUSH3 0x417 PUSH1 0x40 DUP6 ADD PUSH3 0x3B9 JUMP JUMPDEST SWAP1 POP SWAP3 POP SWAP3 POP SWAP3 JUMP JUMPDEST PUSH1 0x0 PUSH1 0x20 DUP3 DUP5 SUB SLT ISZERO PUSH3 0x433 JUMPI PUSH1 0x0 DUP1 REVERT JUMPDEST DUP2 MLOAD PUSH3 0xFFFFFF DUP2 AND DUP2 EQ PUSH3 0x447 JUMPI PUSH1 0x0 DUP1 REVERT JUMPDEST SWAP4 SWAP3 POP POP POP JUMP JUMPDEST PUSH1 0x0 PUSH1 0x20 DUP3 DUP5 SUB SLT ISZERO PUSH3 0x461 JUMPI PUSH1 0x0 DUP1 REVERT JUMPDEST PUSH3 0x447 DUP3 PUSH3 0x3B9 JUMP JUMPDEST PUSH2 0x164A DUP1 PUSH3 0x47C PUSH1 0x0 CODECOPY PUSH1 0x0 RETURN INVALID PUSH1 0x80 PUSH1 0x40 MSTORE CALLVALUE DUP1 ISZERO PUSH2 0x10 JUMPI PUSH1 0x0 DUP1 REVERT JUMPDEST POP PUSH1 0x4 CALLDATASIZE LT PUSH2 0x12C JUMPI PUSH1 0x0 CALLDATALOAD PUSH1 0xE0 SHR DUP1 PUSH4 0x49A44AA1 GT PUSH2 0xAD JUMPI DUP1 PUSH4 0xA217FDDF GT PUSH2 0x71 JUMPI DUP1 PUSH4 0xA217FDDF EQ PUSH2 0x296 JUMPI DUP1 PUSH4 0xD547741F EQ PUSH2 0x29E JUMPI DUP1 PUSH4 0xD6FEBDE8 EQ PUSH2 0x2B1 JUMPI DUP1 PUSH4 0xD79875EB EQ PUSH2 0x2C4 JUMPI DUP1 PUSH4 0xFA461E33 EQ PUSH2 0x197 JUMPI PUSH1 0x0 DUP1 REVERT JUMPDEST DUP1 PUSH4 0x49A44AA1 EQ PUSH2 0x235 JUMPI DUP1 PUSH4 0x71061398 EQ PUSH2 0x248 JUMPI DUP1 PUSH4 0x75D785B8 EQ PUSH2 0x25D JUMPI DUP1 PUSH4 0x8881F7F2 EQ PUSH2 0x270 JUMPI DUP1 PUSH4 0x91D14854 EQ PUSH2 0x283 JUMPI PUSH1 0x0 DUP1 REVERT JUMPDEST DUP1 PUSH4 0x248A9CA3 GT PUSH2 0xF4 JUMPI DUP1 PUSH4 0x248A9CA3 EQ PUSH2 0x1AA JUMPI DUP1 PUSH4 0x2F2FF15D EQ PUSH2 0x1DB JUMPI DUP1 PUSH4 0x36568ABE EQ PUSH2 0x1EE JUMPI DUP1 PUSH4 0x4437152A EQ PUSH2 0x201 JUMPI DUP1 PUSH4 0x447A06F5 EQ PUSH2 0x214 JUMPI PUSH1 0x0 DUP1 REVERT JUMPDEST DUP1 PUSH4 0x1FFC9A7 EQ PUSH2 0x131 JUMPI DUP1 PUSH4 0x26B1D5F EQ PUSH2 0x159 JUMPI DUP1 PUSH4 0x1235E9F7 EQ PUSH2 0x16F JUMPI DUP1 PUSH4 0x1EFD73A5 EQ PUSH2 0x184 JUMPI DUP1 PUSH4 0x23A69E75 EQ PUSH2 0x197 JUMPI JUMPDEST PUSH1 0x0 DUP1 REVERT JUMPDEST PUSH2 0x144 PUSH2 0x13F CALLDATASIZE PUSH1 0x4 PUSH2 0x1071 JUMP JUMPDEST PUSH2 0x2D7 JUMP JUMPDEST PUSH1 0x40 MLOAD SWAP1 ISZERO ISZERO DUP2 MSTORE PUSH1 0x20 ADD JUMPDEST PUSH1 0x40 MLOAD DUP1 SWAP2 SUB SWAP1 RETURN JUMPDEST PUSH2 0x161 PUSH2 0x30E JUMP JUMPDEST PUSH1 0x40 MLOAD PUSH2 0x150 SWAP3 SWAP2 SWAP1 PUSH2 0x10E8 JUMP JUMPDEST PUSH2 0x182 PUSH2 0x17D CALLDATASIZE PUSH1 0x4 PUSH2 0x1170 JUMP JUMPDEST PUSH2 0x356 JUMP JUMPDEST STOP JUMPDEST PUSH2 0x182 PUSH2 0x192 CALLDATASIZE PUSH1 0x4 PUSH2 0x1277 JUMP JUMPDEST PUSH2 0x3CB JUMP JUMPDEST PUSH2 0x182 PUSH2 0x1A5 CALLDATASIZE PUSH1 0x4 PUSH2 0x1277 JUMP JUMPDEST PUSH2 0x49A JUMP JUMPDEST PUSH2 0x1CD PUSH2 0x1B8 CALLDATASIZE PUSH1 0x4 PUSH2 0x12CA JUMP JUMPDEST PUSH1 0x0 SWAP1 DUP2 MSTORE PUSH1 0x20 DUP2 SWAP1 MSTORE PUSH1 0x40 SWAP1 KECCAK256 PUSH1 0x1 ADD SLOAD SWAP1 JUMP JUMPDEST PUSH1 0x40 MLOAD SWAP1 DUP2 MSTORE PUSH1 0x20 ADD PUSH2 0x150 JUMP JUMPDEST PUSH2 0x182 PUSH2 0x1E9 CALLDATASIZE PUSH1 0x4 PUSH2 0x12E3 JUMP JUMPDEST PUSH2 0x4F6 JUMP JUMPDEST PUSH2 0x182 PUSH2 0x1FC CALLDATASIZE PUSH1 0x4 PUSH2 0x12E3 JUMP JUMPDEST PUSH2 0x51B JUMP JUMPDEST PUSH2 0x182 PUSH2 0x20F CALLDATASIZE PUSH1 0x4 PUSH2 0x1313 JUMP JUMPDEST PUSH2 0x54E JUMP JUMPDEST PUSH2 0x227 PUSH2 0x222 CALLDATASIZE PUSH1 0x4 PUSH2 0x1330 JUMP JUMPDEST PUSH2 0x705 JUMP JUMPDEST PUSH1 0x40 MLOAD PUSH2 0x150 SWAP3 SWAP2 SWAP1 PUSH2 0x139B JUMP JUMPDEST PUSH2 0x182 PUSH2 0x243 CALLDATASIZE PUSH1 0x4 PUSH2 0x1277 JUMP JUMPDEST PUSH2 0x725 JUMP JUMPDEST PUSH2 0x250 PUSH2 0x7F8 JUMP JUMPDEST PUSH1 0x40 MLOAD PUSH2 0x150 SWAP2 SWAP1 PUSH2 0x13AF JUMP JUMPDEST PUSH2 0x182 PUSH2 0x26B CALLDATASIZE PUSH1 0x4 PUSH2 0x1170 JUMP JUMPDEST PUSH2 0x84E JUMP JUMPDEST PUSH2 0x144 PUSH2 0x27E CALLDATASIZE PUSH1 0x4 PUSH2 0x1313 JUMP JUMPDEST PUSH2 0x8BE JUMP JUMPDEST PUSH2 0x144 PUSH2 0x291 CALLDATASIZE PUSH1 0x4 PUSH2 0x12E3 JUMP JUMPDEST PUSH2 0x975 JUMP JUMPDEST PUSH2 0x1CD PUSH1 0x0 DUP2 JUMP JUMPDEST PUSH2 0x182 PUSH2 0x2AC CALLDATASIZE PUSH1 0x4 PUSH2 0x12E3 JUMP JUMPDEST PUSH2 0x99E JUMP JUMPDEST PUSH2 0x182 PUSH2 0x2BF CALLDATASIZE PUSH1 0x4 PUSH2 0x13E0 JUMP JUMPDEST PUSH2 0x9C3 JUMP JUMPDEST PUSH2 0x182 PUSH2 0x2D2 CALLDATASIZE PUSH1 0x4 PUSH2 0x13E0 JUMP JUMPDEST PUSH2 0xA4C JUMP JUMPDEST PUSH1 0x0 PUSH1 0x1 PUSH1 0x1 PUSH1 0xE0 SHL SUB NOT DUP3 AND PUSH4 0x7965DB0B PUSH1 0xE0 SHL EQ DUP1 PUSH2 0x308 JUMPI POP PUSH4 0x1FFC9A7 PUSH1 0xE0 SHL PUSH1 0x1 PUSH1 0x1 PUSH1 0xE0 SHL SUB NOT DUP4 AND EQ JUMPDEST SWAP3 SWAP2 POP POP JUMP JUMPDEST PUSH2 0x316 PUSH2 0x1053 JUMP JUMPDEST PUSH1 0x40 DUP1 MLOAD PUSH1 0x60 DUP2 DUP2 ADD DUP4 MSTORE PUSH1 0x2 SLOAD PUSH1 0x1 PUSH1 0x1 PUSH1 0xA0 SHL SUB SWAP1 DUP2 AND DUP4 MSTORE PUSH1 0x3 SLOAD DUP2 AND PUSH1 0x20 DUP5 ADD MSTORE PUSH1 0x4 SLOAD AND SWAP3 DUP3 ADD SWAP3 SWAP1 SWAP3 MSTORE PUSH2 0x34E PUSH2 0xA7D JUMP JUMPDEST SWAP2 POP SWAP2 POP SWAP1 SWAP2 JUMP JUMPDEST PUSH32 0xAF290D8680820AAD922855F39B306097B20E28774D6C1AD35A20325630C3A02C PUSH2 0x380 DUP2 PUSH2 0xADE JUMP JUMPDEST PUSH1 0x0 JUMPDEST DUP3 MLOAD DUP2 LT ISZERO PUSH2 0x3C6 JUMPI PUSH2 0x3BD PUSH1 0x0 DUP1 MLOAD PUSH1 0x20 PUSH2 0x15F5 DUP4 CODECOPY DUP2 MLOAD SWAP2 MSTORE DUP5 DUP4 DUP2 MLOAD DUP2 LT PUSH2 0x3B0 JUMPI PUSH2 0x3B0 PUSH2 0x1402 JUMP JUMPDEST PUSH1 0x20 MUL PUSH1 0x20 ADD ADD MLOAD PUSH2 0xAEB JUMP JUMPDEST POP PUSH1 0x1 ADD PUSH2 0x383 JUMP JUMPDEST POP POP POP JUMP JUMPDEST PUSH2 0x3D4 CALLER PUSH2 0x8BE JUMP JUMPDEST PUSH2 0x3F9 JUMPI PUSH1 0x40 MLOAD PUSH3 0x461BCD PUSH1 0xE5 SHL DUP2 MSTORE PUSH1 0x4 ADD PUSH2 0x3F0 SWAP1 PUSH2 0x1418 JUMP JUMPDEST PUSH1 0x40 MLOAD DUP1 SWAP2 SUB SWAP1 REVERT JUMPDEST PUSH1 0x0 DUP1 PUSH1 0x0 PUSH2 0x420 PUSH2 0x40A DUP9 PUSH2 0xB5E JUMP JUMPDEST PUSH1 0x5 SLOAD PUSH1 0x1 PUSH1 0x1 PUSH1 0xA0 SHL SUB AND DUP8 DUP8 ADDRESS PUSH1 0x1 PUSH2 0xB74 JUMP JUMPDEST SWAP3 POP SWAP3 POP SWAP3 POP PUSH1 0x0 DUP2 PUSH2 0x433 JUMPI DUP4 PUSH2 0x435 JUMP JUMPDEST DUP3 JUMPDEST PUSH2 0x43E SWAP1 PUSH2 0x1465 JUMP JUMPDEST SWAP1 POP DUP7 DUP2 LT ISZERO PUSH2 0x490 JUMPI PUSH1 0x40 MLOAD PUSH3 0x461BCD PUSH1 0xE5 SHL DUP2 MSTORE PUSH1 0x20 PUSH1 0x4 DUP3 ADD MSTORE PUSH1 0x1A PUSH1 0x24 DUP3 ADD MSTORE PUSH32 0x496E76616C696420746F206C6974746C65207265636965766564000000000000 PUSH1 0x44 DUP3 ADD MSTORE PUSH1 0x64 ADD PUSH2 0x3F0 JUMP JUMPDEST POP POP POP POP POP POP POP POP JUMP JUMPDEST PUSH1 0x2 SLOAD PUSH1 0x1 PUSH1 0x1 PUSH1 0xA0 SHL SUB AND CALLER EQ PUSH2 0x4E4 JUMPI PUSH1 0x40 MLOAD PUSH3 0x461BCD PUSH1 0xE5 SHL DUP2 MSTORE PUSH1 0x20 PUSH1 0x4 DUP3 ADD MSTORE PUSH1 0xD PUSH1 0x24 DUP3 ADD MSTORE PUSH13 0x1BDB9B1E48199BDC881C1BDBDB PUSH1 0x9A SHL PUSH1 0x44 DUP3 ADD MSTORE PUSH1 0x64 ADD PUSH2 0x3F0 JUMP JUMPDEST PUSH2 0x4F0 DUP5 DUP5 DUP5 DUP5 PUSH2 0xCAA JUMP JUMPDEST POP POP POP POP JUMP JUMPDEST PUSH1 0x0 DUP3 DUP2 MSTORE PUSH1 0x20 DUP2 SWAP1 MSTORE PUSH1 0x40 SWAP1 KECCAK256 PUSH1 0x1 ADD SLOAD PUSH2 0x511 DUP2 PUSH2 0xADE JUMP JUMPDEST PUSH2 0x4F0 DUP4 DUP4 PUSH2 0xEC8 JUMP JUMPDEST PUSH1 0x1 PUSH1 0x1 PUSH1 0xA0 SHL SUB DUP2 AND CALLER EQ PUSH2 0x544 JUMPI PUSH1 0x40 MLOAD PUSH4 0x334BD919 PUSH1 0xE1 SHL DUP2 MSTORE PUSH1 0x4 ADD PUSH1 0x40 MLOAD DUP1 SWAP2 SUB SWAP1 REVERT JUMPDEST PUSH2 0x3C6 DUP3 DUP3 PUSH2 0xAEB JUMP JUMPDEST PUSH1 0x0 PUSH2 0x559 DUP2 PUSH2 0xADE JUMP JUMPDEST PUSH1 0x2 DUP1 SLOAD PUSH1 0x1 PUSH1 0x1 PUSH1 0xA0 SHL SUB NOT AND PUSH1 0x1 PUSH1 0x1 PUSH1 0xA0 SHL SUB DUP5 AND SWAP1 DUP2 OR SWAP1 SWAP2 SSTORE PUSH1 0x40 DUP1 MLOAD PUSH4 0xDFE1681 PUSH1 0xE0 SHL DUP2 MSTORE SWAP1 MLOAD DUP5 SWAP3 SWAP2 PUSH4 0xDFE1681 SWAP2 PUSH1 0x4 DUP1 DUP4 ADD SWAP3 PUSH1 0x20 SWAP3 SWAP2 SWAP1 DUP3 SWAP1 SUB ADD DUP2 DUP7 GAS STATICCALL ISZERO DUP1 ISZERO PUSH2 0x5B4 JUMPI RETURNDATASIZE PUSH1 0x0 DUP1 RETURNDATACOPY RETURNDATASIZE PUSH1 0x0 REVERT JUMPDEST POP POP POP POP PUSH1 0x40 MLOAD RETURNDATASIZE PUSH1 0x1F NOT PUSH1 0x1F DUP3 ADD AND DUP3 ADD DUP1 PUSH1 0x40 MSTORE POP DUP2 ADD SWAP1 PUSH2 0x5D8 SWAP2 SWAP1 PUSH2 0x1481 JUMP JUMPDEST PUSH1 0x3 PUSH1 0x0 PUSH2 0x100 EXP DUP2 SLOAD DUP2 PUSH1 0x1 PUSH1 0x1 PUSH1 0xA0 SHL SUB MUL NOT AND SWAP1 DUP4 PUSH1 0x1 PUSH1 0x1 PUSH1 0xA0 SHL SUB AND MUL OR SWAP1 SSTORE POP DUP1 PUSH1 0x1 PUSH1 0x1 PUSH1 0xA0 SHL SUB AND PUSH4 0xDDCA3F43 PUSH1 0x40 MLOAD DUP2 PUSH4 0xFFFFFFFF AND PUSH1 0xE0 SHL DUP2 MSTORE PUSH1 0x4 ADD PUSH1 0x20 PUSH1 0x40 MLOAD DUP1 DUP4 SUB DUP2 DUP7 GAS STATICCALL ISZERO DUP1 ISZERO PUSH2 0x63C JUMPI RETURNDATASIZE PUSH1 0x0 DUP1 RETURNDATACOPY RETURNDATASIZE PUSH1 0x0 REVERT JUMPDEST POP POP POP POP PUSH1 0x40 MLOAD RETURNDATASIZE PUSH1 0x1F NOT PUSH1 0x1F DUP3 ADD AND DUP3 ADD DUP1 PUSH1 0x40 MSTORE POP DUP2 ADD SWAP1 PUSH2 0x660 SWAP2 SWAP1 PUSH2 0x149E JUMP JUMPDEST PUSH1 0x3 PUSH1 0x14 PUSH2 0x100 EXP DUP2 SLOAD DUP2 PUSH3 0xFFFFFF MUL NOT AND SWAP1 DUP4 PUSH3 0xFFFFFF AND MUL OR SWAP1 SSTORE POP DUP1 PUSH1 0x1 PUSH1 0x1 PUSH1 0xA0 SHL SUB AND PUSH4 0xD21220A7 PUSH1 0x40 MLOAD DUP2 PUSH4 0xFFFFFFFF AND PUSH1 0xE0 SHL DUP2 MSTORE PUSH1 0x4 ADD PUSH1 0x20 PUSH1 0x40 MLOAD DUP1 DUP4 SUB DUP2 DUP7 GAS STATICCALL ISZERO DUP1 ISZERO PUSH2 0x6BC JUMPI RETURNDATASIZE PUSH1 0x0 DUP1 RETURNDATACOPY RETURNDATASIZE PUSH1 0x0 REVERT JUMPDEST POP POP POP POP PUSH1 0x40 MLOAD RETURNDATASIZE PUSH1 0x1F NOT PUSH1 0x1F DUP3 ADD AND DUP3 ADD DUP1 PUSH1 0x40 MSTORE POP DUP2 ADD SWAP1 PUSH2 0x6E0 SWAP2 SWAP1 PUSH2 0x1481 JUMP JUMPDEST PUSH1 0x4 DUP1 SLOAD PUSH1 0x1 PUSH1 0x1 PUSH1 0xA0 SHL SUB NOT AND PUSH1 0x1 PUSH1 0x1 PUSH1 0xA0 SHL SUB SWAP3 SWAP1 SWAP3 AND SWAP2 SWAP1 SWAP2 OR SWAP1 SSTORE POP POP POP JUMP JUMPDEST CALLDATASIZE PUSH1 0x0 DUP2 DUP2 PUSH2 0x716 DUP7 DUP7 PUSH1 0x3 PUSH2 0xF52 JUMP JUMPDEST SWAP1 SWAP5 POP SWAP3 POP POP POP JUMPDEST SWAP3 POP SWAP3 SWAP1 POP JUMP JUMPDEST PUSH2 0x72E CALLER PUSH2 0x8BE JUMP JUMPDEST PUSH2 0x74A JUMPI PUSH1 0x40 MLOAD PUSH3 0x461BCD PUSH1 0xE5 SHL DUP2 MSTORE PUSH1 0x4 ADD PUSH2 0x3F0 SWAP1 PUSH2 0x1418 JUMP JUMPDEST PUSH1 0x6 DUP4 SWAP1 SSTORE PUSH1 0x0 DUP1 DUP1 PUSH2 0x77E PUSH2 0x75F DUP9 PUSH2 0xB5E JUMP JUMPDEST PUSH2 0x768 SWAP1 PUSH2 0x1465 JUMP JUMPDEST PUSH1 0x5 SLOAD PUSH1 0x1 PUSH1 0x1 PUSH1 0xA0 SHL SUB AND DUP8 DUP8 ADDRESS PUSH1 0x0 PUSH2 0xB74 JUMP JUMPDEST SWAP3 POP SWAP3 POP SWAP3 POP PUSH1 0x0 DUP2 PUSH2 0x799 JUMPI PUSH2 0x794 DUP5 PUSH2 0x1465 JUMP JUMPDEST PUSH2 0x7A2 JUMP JUMPDEST PUSH2 0x7A2 DUP4 PUSH2 0x1465 JUMP JUMPDEST SWAP1 POP DUP8 DUP2 EQ PUSH2 0x7E8 JUMPI PUSH1 0x40 MLOAD PUSH3 0x461BCD PUSH1 0xE5 SHL DUP2 MSTORE PUSH1 0x20 PUSH1 0x4 DUP3 ADD MSTORE PUSH1 0x12 PUSH1 0x24 DUP3 ADD MSTORE PUSH18 0x125B9D985B1A5908185B5BDD5B9D081BDD5D PUSH1 0x72 SHL PUSH1 0x44 DUP3 ADD MSTORE PUSH1 0x64 ADD PUSH2 0x3F0 JUMP JUMPDEST POP POP PUSH1 0x0 NOT PUSH1 0x6 SSTORE POP POP POP POP POP POP JUMP JUMPDEST PUSH2 0x800 PUSH2 0x1053 JUMP JUMPDEST POP PUSH1 0x40 DUP1 MLOAD PUSH1 0x60 DUP2 ADD DUP3 MSTORE PUSH1 0x0 DUP2 MSTORE PUSH32 0xAF290D8680820AAD922855F39B306097B20E28774D6C1AD35A20325630C3A02C PUSH1 0x20 DUP3 ADD MSTORE PUSH1 0x0 DUP1 MLOAD PUSH1 0x20 PUSH2 0x15F5 DUP4 CODECOPY DUP2 MLOAD SWAP2 MSTORE SWAP2 DUP2 ADD SWAP2 SWAP1 SWAP2 MSTORE SWAP1 JUMP JUMPDEST PUSH32 0xAF290D8680820AAD922855F39B306097B20E28774D6C1AD35A20325630C3A02C PUSH2 0x878 DUP2 PUSH2 0xADE JUMP JUMPDEST PUSH1 0x0 JUMPDEST DUP3 MLOAD DUP2 LT ISZERO PUSH2 0x3C6 JUMPI PUSH2 0x8B5 PUSH1 0x0 DUP1 MLOAD PUSH1 0x20 PUSH2 0x15F5 DUP4 CODECOPY DUP2 MLOAD SWAP2 MSTORE DUP5 DUP4 DUP2 MLOAD DUP2 LT PUSH2 0x8A8 JUMPI PUSH2 0x8A8 PUSH2 0x1402 JUMP JUMPDEST PUSH1 0x20 MUL PUSH1 0x20 ADD ADD MLOAD PUSH2 0xEC8 JUMP JUMPDEST POP PUSH1 0x1 ADD PUSH2 0x87B JUMP JUMPDEST PUSH1 0x0 DUP1 PUSH2 0x8D9 PUSH1 0x0 DUP1 MLOAD PUSH1 0x20 PUSH2 0x15F5 DUP4 CODECOPY DUP2 MLOAD SWAP2 MSTORE DUP5 PUSH2 0x975 JUMP JUMPDEST PUSH1 0x1 SLOAD PUSH1 0x40 MLOAD PUSH4 0xC683630D PUSH1 0xE0 SHL DUP2 MSTORE PUSH1 0x1 PUSH1 0x1 PUSH1 0xA0 SHL SUB DUP7 DUP2 AND PUSH1 0x4 DUP4 ADD MSTORE SWAP3 SWAP4 POP PUSH1 0x0 SWAP3 SWAP1 SWAP2 AND SWAP1 PUSH4 0xC683630D SWAP1 PUSH1 0x24 ADD PUSH1 0x20 PUSH1 0x40 MLOAD DUP1 DUP4 SUB DUP2 DUP7 GAS STATICCALL ISZERO DUP1 ISZERO PUSH2 0x929 JUMPI RETURNDATASIZE PUSH1 0x0 DUP1 RETURNDATACOPY RETURNDATASIZE PUSH1 0x0 REVERT JUMPDEST POP POP POP POP PUSH1 0x40 MLOAD RETURNDATASIZE PUSH1 0x1F NOT PUSH1 0x1F DUP3 ADD AND DUP3 ADD DUP1 PUSH1 0x40 MSTORE POP DUP2 ADD SWAP1 PUSH2 0x94D SWAP2 SWAP1 PUSH2 0x14C3 JUMP JUMPDEST SWAP1 POP PUSH1 0x1 PUSH1 0x1 PUSH1 0xA0 SHL SUB DUP5 AND ADDRESS EQ DUP3 DUP1 PUSH2 0x964 JUMPI POP DUP2 JUMPDEST DUP1 PUSH2 0x96C JUMPI POP DUP1 JUMPDEST SWAP6 SWAP5 POP POP POP POP POP JUMP JUMPDEST PUSH1 0x0 SWAP2 DUP3 MSTORE PUSH1 0x20 DUP3 DUP2 MSTORE PUSH1 0x40 DUP1 DUP5 KECCAK256 PUSH1 0x1 PUSH1 0x1 PUSH1 0xA0 SHL SUB SWAP4 SWAP1 SWAP4 AND DUP5 MSTORE SWAP2 SWAP1 MSTORE SWAP1 KECCAK256 SLOAD PUSH1 0xFF AND SWAP1 JUMP JUMPDEST PUSH1 0x0 DUP3 DUP2 MSTORE PUSH1 0x20 DUP2 SWAP1 MSTORE PUSH1 0x40 SWAP1 KECCAK256 PUSH1 0x1 ADD SLOAD PUSH2 0x9B9 DUP2 PUSH2 0xADE JUMP JUMPDEST PUSH2 0x4F0 DUP4 DUP4 PUSH2 0xAEB JUMP JUMPDEST PUSH2 0x9CC CALLER PUSH2 0x8BE JUMP JUMPDEST PUSH2 0x9E8 JUMPI PUSH1 0x40 MLOAD PUSH3 0x461BCD PUSH1 0xE5 SHL DUP2 MSTORE PUSH1 0x4 ADD PUSH2 0x3F0 SWAP1 PUSH2 0x1418 JUMP JUMPDEST ADDRESS PUSH4 0x1EFD73A5 DUP4 DUP4 PUSH2 0x9F8 PUSH2 0xA7D JUMP JUMPDEST PUSH1 0x40 MLOAD DUP5 PUSH4 0xFFFFFFFF AND PUSH1 0xE0 SHL DUP2 MSTORE PUSH1 0x4 ADD PUSH2 0xA16 SWAP4 SWAP3 SWAP2 SWAP1 PUSH2 0x14E5 JUMP JUMPDEST PUSH1 0x0 PUSH1 0x40 MLOAD DUP1 DUP4 SUB DUP2 PUSH1 0x0 DUP8 DUP1 EXTCODESIZE ISZERO DUP1 ISZERO PUSH2 0xA30 JUMPI PUSH1 0x0 DUP1 REVERT JUMPDEST POP GAS CALL ISZERO DUP1 ISZERO PUSH2 0xA44 JUMPI RETURNDATASIZE PUSH1 0x0 DUP1 RETURNDATACOPY RETURNDATASIZE PUSH1 0x0 REVERT JUMPDEST POP POP POP POP POP POP JUMP JUMPDEST PUSH2 0xA55 CALLER PUSH2 0x8BE JUMP JUMPDEST PUSH2 0xA71 JUMPI PUSH1 0x40 MLOAD PUSH3 0x461BCD PUSH1 0xE5 SHL DUP2 MSTORE PUSH1 0x4 ADD PUSH2 0x3F0 SWAP1 PUSH2 0x1418 JUMP JUMPDEST ADDRESS PUSH4 0x49A44AA1 DUP4 DUP4 PUSH2 0x9F8 JUMPDEST PUSH1 0x3 SLOAD PUSH1 0x4 SLOAD PUSH1 0x40 MLOAD PUSH1 0x60 DUP4 DUP2 SHL PUSH12 0xFFFFFFFFFFFFFFFFFFFFFFFF NOT SWAP1 DUP2 AND PUSH1 0x20 DUP5 ADD MSTORE PUSH1 0x1 PUSH1 0xA0 SHL SWAP1 SWAP5 DIV PUSH1 0xE8 SHL PUSH1 0x1 PUSH1 0x1 PUSH1 0xE8 SHL SUB NOT AND PUSH1 0x34 DUP4 ADD MSTORE SWAP2 DUP3 SHL SWAP1 SWAP3 AND PUSH1 0x37 DUP4 ADD MSTORE SWAP1 PUSH1 0x4B ADD PUSH1 0x40 MLOAD PUSH1 0x20 DUP2 DUP4 SUB SUB DUP2 MSTORE SWAP1 PUSH1 0x40 MSTORE SWAP1 POP SWAP1 JUMP JUMPDEST PUSH2 0xAE8 DUP2 CALLER PUSH2 0xF70 JUMP JUMPDEST POP JUMP JUMPDEST PUSH1 0x0 PUSH2 0xAF7 DUP4 DUP4 PUSH2 0x975 JUMP JUMPDEST ISZERO PUSH2 0xB56 JUMPI PUSH1 0x0 DUP4 DUP2 MSTORE PUSH1 0x20 DUP2 DUP2 MSTORE PUSH1 0x40 DUP1 DUP4 KECCAK256 PUSH1 0x1 PUSH1 0x1 PUSH1 0xA0 SHL SUB DUP7 AND DUP1 DUP6 MSTORE SWAP3 MSTORE DUP1 DUP4 KECCAK256 DUP1 SLOAD PUSH1 0xFF NOT AND SWAP1 SSTORE MLOAD CALLER SWAP3 DUP7 SWAP2 PUSH32 0xF6391F5C32D9C69D2A47EA670B442974B53935D1EDC7FD64EB21E047A839171B SWAP2 SWAP1 LOG4 POP PUSH1 0x1 PUSH2 0x308 JUMP JUMPDEST POP PUSH1 0x0 PUSH2 0x308 JUMP JUMPDEST PUSH1 0x0 PUSH1 0x1 PUSH1 0xFF SHL DUP3 LT PUSH2 0xB70 JUMPI PUSH1 0x0 DUP1 REVERT JUMPDEST POP SWAP1 JUMP JUMPDEST PUSH1 0x0 DUP1 PUSH1 0x0 DUP1 PUSH1 0x0 PUSH2 0xB86 DUP10 DUP10 PUSH2 0xFAD JUMP JUMPDEST SWAP3 POP POP SWAP2 POP DUP6 PUSH2 0xBAA JUMPI DUP2 PUSH1 0x1 PUSH1 0x1 PUSH1 0xA0 SHL SUB AND DUP2 PUSH1 0x1 PUSH1 0x1 PUSH1 0xA0 SHL SUB AND LT PUSH2 0xBC0 JUMP JUMPDEST DUP1 PUSH1 0x1 PUSH1 0x1 PUSH1 0xA0 SHL SUB AND DUP3 PUSH1 0x1 PUSH1 0x1 PUSH1 0xA0 SHL SUB AND LT JUMPDEST PUSH1 0x2 SLOAD SWAP1 SWAP4 POP PUSH1 0x1 PUSH1 0x1 PUSH1 0xA0 SHL SUB AND PUSH4 0x128ACB08 DUP12 DUP6 DUP15 DUP2 PUSH2 0xC00 JUMPI PUSH2 0xBFB PUSH1 0x1 PUSH20 0xFFFD8963EFD1FC6A506488495D951D5263988D26 PUSH2 0x1504 JUMP JUMPDEST PUSH2 0xC10 JUMP JUMPDEST PUSH2 0xC10 PUSH5 0x1000276A3 PUSH1 0x1 PUSH2 0x152B JUMP JUMPDEST DUP15 DUP15 DUP15 PUSH1 0x40 MLOAD PUSH1 0x20 ADD PUSH2 0xC25 SWAP4 SWAP3 SWAP2 SWAP1 PUSH2 0x154B JUMP JUMPDEST PUSH1 0x40 MLOAD PUSH1 0x20 DUP2 DUP4 SUB SUB DUP2 MSTORE SWAP1 PUSH1 0x40 MSTORE PUSH1 0x40 MLOAD DUP7 PUSH4 0xFFFFFFFF AND PUSH1 0xE0 SHL DUP2 MSTORE PUSH1 0x4 ADD PUSH2 0xC54 SWAP6 SWAP5 SWAP4 SWAP3 SWAP2 SWAP1 PUSH2 0x1577 JUMP JUMPDEST PUSH1 0x40 DUP1 MLOAD DUP1 DUP4 SUB DUP2 PUSH1 0x0 DUP8 GAS CALL ISZERO DUP1 ISZERO PUSH2 0xC72 JUMPI RETURNDATASIZE PUSH1 0x0 DUP1 RETURNDATACOPY RETURNDATASIZE PUSH1 0x0 REVERT JUMPDEST POP POP POP POP PUSH1 0x40 MLOAD RETURNDATASIZE PUSH1 0x1F NOT PUSH1 0x1F DUP3 ADD AND DUP3 ADD DUP1 PUSH1 0x40 MSTORE POP DUP2 ADD SWAP1 PUSH2 0xC96 SWAP2 SWAP1 PUSH2 0x15BD JUMP JUMPDEST SWAP1 SWAP13 SWAP1 SWAP12 POP SWAP3 SWAP10 POP SWAP2 SWAP8 POP POP POP POP POP POP POP POP JUMP JUMPDEST PUSH1 0x0 DUP5 SGT ISZERO DUP1 ISZERO PUSH2 0xCBC JUMPI POP PUSH1 0x0 DUP4 SGT ISZERO JUMPDEST ISZERO PUSH2 0xCF9 JUMPI PUSH1 0x40 MLOAD PUSH3 0x461BCD PUSH1 0xE5 SHL DUP2 MSTORE PUSH1 0x20 PUSH1 0x4 DUP3 ADD MSTORE PUSH1 0xD PUSH1 0x24 DUP3 ADD MSTORE PUSH13 0x64656C7461206973207A65726F PUSH1 0x98 SHL PUSH1 0x44 DUP3 ADD MSTORE PUSH1 0x64 ADD PUSH2 0x3F0 JUMP JUMPDEST CALLDATASIZE PUSH1 0x0 PUSH2 0xD07 DUP5 DUP5 DUP4 PUSH2 0xF52 JUMP JUMPDEST SWAP2 POP SWAP2 POP PUSH1 0x0 DUP1 PUSH2 0xD18 DUP5 DUP5 PUSH2 0xFAD JUMP JUMPDEST SWAP3 POP POP SWAP2 POP PUSH1 0x0 DUP1 PUSH1 0x0 DUP11 SGT PUSH2 0xD43 JUMPI DUP4 PUSH1 0x1 PUSH1 0x1 PUSH1 0xA0 SHL SUB AND DUP4 PUSH1 0x1 PUSH1 0x1 PUSH1 0xA0 SHL SUB AND LT DUP10 PUSH2 0xD5A JUMP JUMPDEST DUP3 PUSH1 0x1 PUSH1 0x1 PUSH1 0xA0 SHL SUB AND DUP5 PUSH1 0x1 PUSH1 0x1 PUSH1 0xA0 SHL SUB AND LT DUP11 JUMPDEST SWAP2 POP SWAP2 POP DUP2 ISZERO PUSH2 0xDE9 JUMPI PUSH1 0x5 SLOAD PUSH1 0x40 MLOAD PUSH4 0x23B872DD PUSH1 0xE0 SHL DUP2 MSTORE PUSH1 0x1 PUSH1 0x1 PUSH1 0xA0 SHL SUB SWAP2 DUP3 AND PUSH1 0x4 DUP3 ADD MSTORE CALLER PUSH1 0x24 DUP3 ADD MSTORE PUSH1 0x44 DUP2 ADD DUP4 SWAP1 MSTORE DUP6 SWAP2 DUP3 AND SWAP1 PUSH4 0x23B872DD SWAP1 PUSH1 0x64 ADD PUSH1 0x20 PUSH1 0x40 MLOAD DUP1 DUP4 SUB DUP2 PUSH1 0x0 DUP8 GAS CALL ISZERO DUP1 ISZERO PUSH2 0xDBE JUMPI RETURNDATASIZE PUSH1 0x0 DUP1 RETURNDATACOPY RETURNDATASIZE PUSH1 0x0 REVERT JUMPDEST POP POP POP POP PUSH1 0x40 MLOAD RETURNDATASIZE PUSH1 0x1F NOT PUSH1 0x1F DUP3 ADD AND DUP3 ADD DUP1 PUSH1 0x40 MSTORE POP DUP2 ADD SWAP1 PUSH2 0xDE2 SWAP2 SWAP1 PUSH2 0x14C3 JUMP JUMPDEST POP POP PUSH2 0xEBC JUMP JUMPDEST PUSH1 0x6 SLOAD DUP2 GT ISZERO PUSH2 0xE3B JUMPI PUSH1 0x40 MLOAD PUSH3 0x461BCD PUSH1 0xE5 SHL DUP2 MSTORE PUSH1 0x20 PUSH1 0x4 DUP3 ADD MSTORE PUSH1 0x19 PUSH1 0x24 DUP3 ADD MSTORE PUSH32 0x496E76616C696420746F206D7563682072657175657374656400000000000000 PUSH1 0x44 DUP3 ADD MSTORE PUSH1 0x64 ADD PUSH2 0x3F0 JUMP JUMPDEST PUSH1 0x5 SLOAD PUSH1 0x40 MLOAD PUSH4 0x23B872DD PUSH1 0xE0 SHL DUP2 MSTORE PUSH1 0x1 PUSH1 0x1 PUSH1 0xA0 SHL SUB SWAP2 DUP3 AND PUSH1 0x4 DUP3 ADD MSTORE CALLER PUSH1 0x24 DUP3 ADD MSTORE PUSH1 0x44 DUP2 ADD DUP4 SWAP1 MSTORE DUP5 SWAP2 DUP3 AND SWAP1 PUSH4 0x23B872DD SWAP1 PUSH1 0x64 ADD PUSH1 0x20 PUSH1 0x40 MLOAD DUP1 DUP4 SUB DUP2 PUSH1 0x0 DUP8 GAS CALL ISZERO DUP1 ISZERO PUSH2 0xE95 JUMPI RETURNDATASIZE PUSH1 0x0 DUP1 RETURNDATACOPY RETURNDATASIZE PUSH1 0x0 REVERT JUMPDEST POP POP POP POP PUSH1 0x40 MLOAD RETURNDATASIZE PUSH1 0x1F NOT PUSH1 0x1F DUP3 ADD AND DUP3 ADD DUP1 PUSH1 0x40 MSTORE POP DUP2 ADD SWAP1 PUSH2 0xEB9 SWAP2 SWAP1 PUSH2 0x14C3 JUMP JUMPDEST POP POP JUMPDEST POP POP POP POP POP POP POP POP POP POP JUMP JUMPDEST PUSH1 0x0 PUSH2 0xED4 DUP4 DUP4 PUSH2 0x975 JUMP JUMPDEST PUSH2 0xB56 JUMPI PUSH1 0x0 DUP4 DUP2 MSTORE PUSH1 0x20 DUP2 DUP2 MSTORE PUSH1 0x40 DUP1 DUP4 KECCAK256 PUSH1 0x1 PUSH1 0x1 PUSH1 0xA0 SHL SUB DUP7 AND DUP5 MSTORE SWAP1 SWAP2 MSTORE SWAP1 KECCAK256 DUP1 SLOAD PUSH1 0xFF NOT AND PUSH1 0x1 OR SWAP1 SSTORE PUSH2 0xF0A CALLER SWAP1 JUMP JUMPDEST PUSH1 0x1 PUSH1 0x1 PUSH1 0xA0 SHL SUB AND DUP3 PUSH1 0x1 PUSH1 0x1 PUSH1 0xA0 SHL SUB AND DUP5 PUSH32 0x2F8788117E7EFF1D82E926EC794901D17C78024A50270940304540A733656F0D PUSH1 0x40 MLOAD PUSH1 0x40 MLOAD DUP1 SWAP2 SUB SWAP1 LOG4 POP PUSH1 0x1 PUSH2 0x308 JUMP JUMPDEST CALLDATASIZE PUSH1 0x0 DUP1 PUSH1 0x0 PUSH2 0xF63 DUP8 DUP8 DUP8 PUSH2 0x1009 JUMP JUMPDEST SWAP9 SWAP1 SWAP8 POP SWAP6 POP POP POP POP POP POP JUMP JUMPDEST PUSH2 0xF7A DUP3 DUP3 PUSH2 0x975 JUMP JUMPDEST PUSH2 0xFA9 JUMPI PUSH1 0x40 MLOAD PUSH4 0xE2517D3F PUSH1 0xE0 SHL DUP2 MSTORE PUSH1 0x1 PUSH1 0x1 PUSH1 0xA0 SHL SUB DUP3 AND PUSH1 0x4 DUP3 ADD MSTORE PUSH1 0x24 DUP2 ADD DUP4 SWAP1 MSTORE PUSH1 0x44 ADD PUSH2 0x3F0 JUMP JUMPDEST POP POP JUMP JUMPDEST PUSH1 0x0 DUP1 DUP1 PUSH1 0x14 PUSH2 0xFBE PUSH1 0x3 DUP3 PUSH2 0x15E1 JUMP JUMPDEST PUSH2 0xFC8 SWAP2 SWAP1 PUSH2 0x15E1 JUMP JUMPDEST DUP5 LT ISZERO PUSH2 0xFE8 JUMPI PUSH1 0x40 MLOAD PUSH4 0x3B99B53D PUSH1 0xE0 SHL DUP2 MSTORE PUSH1 0x4 ADD PUSH1 0x40 MLOAD DUP1 SWAP2 SUB SWAP1 REVERT JUMPDEST POP POP POP DUP2 CALLDATALOAD PUSH1 0x60 DUP2 DUP2 SHR SWAP5 PUSH1 0x48 SWAP3 SWAP1 SWAP3 SHR PUSH3 0xFFFFFF AND SWAP4 PUSH1 0x17 ADD CALLDATALOAD SWAP1 SHR SWAP2 POP JUMP JUMPDEST PUSH1 0x5 DUP2 SWAP1 SHL DUP4 ADD CALLDATALOAD DUP4 ADD DUP1 CALLDATALOAD SWAP1 PUSH1 0x20 DUP1 DUP3 ADD SWAP2 DUP7 SWAP1 SUB ADD PUSH2 0x102A DUP2 DUP5 PUSH2 0x15E1 JUMP JUMPDEST DUP6 LT ISZERO PUSH2 0x104A JUMPI PUSH1 0x40 MLOAD PUSH4 0x3B99B53D PUSH1 0xE0 SHL DUP2 MSTORE PUSH1 0x4 ADD PUSH1 0x40 MLOAD DUP1 SWAP2 SUB SWAP1 REVERT JUMPDEST POP SWAP4 POP SWAP4 SWAP2 POP POP JUMP JUMPDEST PUSH1 0x40 MLOAD DUP1 PUSH1 0x60 ADD PUSH1 0x40 MSTORE DUP1 PUSH1 0x3 SWAP1 PUSH1 0x20 DUP3 MUL DUP1 CALLDATASIZE DUP4 CALLDATACOPY POP SWAP2 SWAP3 SWAP2 POP POP JUMP JUMPDEST PUSH1 0x0 PUSH1 0x20 DUP3 DUP5 SUB SLT ISZERO PUSH2 0x1083 JUMPI PUSH1 0x0 DUP1 REVERT JUMPDEST DUP2 CALLDATALOAD PUSH1 0x1 PUSH1 0x1 PUSH1 0xE0 SHL SUB NOT DUP2 AND DUP2 EQ PUSH2 0x109B JUMPI PUSH1 0x0 DUP1 REVERT JUMPDEST SWAP4 SWAP3 POP POP POP JUMP JUMPDEST PUSH1 0x0 DUP2 MLOAD DUP1 DUP5 MSTORE PUSH1 0x0 JUMPDEST DUP2 DUP2 LT ISZERO PUSH2 0x10C8 JUMPI PUSH1 0x20 DUP2 DUP6 ADD DUP2 ADD MLOAD DUP7 DUP4 ADD DUP3 ADD MSTORE ADD PUSH2 0x10AC JUMP JUMPDEST POP PUSH1 0x0 PUSH1 0x20 DUP3 DUP7 ADD ADD MSTORE PUSH1 0x20 PUSH1 0x1F NOT PUSH1 0x1F DUP4 ADD AND DUP6 ADD ADD SWAP2 POP POP SWAP3 SWAP2 POP POP JUMP JUMPDEST PUSH1 0x0 DUP2 DUP5 DUP3 JUMPDEST PUSH1 0x3 DUP2 LT ISZERO PUSH2 0x1116 JUMPI DUP2 MLOAD PUSH1 0x1 PUSH1 0x1 PUSH1 0xA0 SHL SUB AND DUP4 MSTORE PUSH1 0x20 SWAP3 DUP4 ADD SWAP3 SWAP1 SWAP2 ADD SWAP1 PUSH1 0x1 ADD PUSH2 0x10EE JUMP JUMPDEST POP POP POP PUSH1 0x80 PUSH1 0x60 DUP4 ADD MSTORE PUSH2 0x112D PUSH1 0x80 DUP4 ADD DUP5 PUSH2 0x10A2 JUMP JUMPDEST SWAP5 SWAP4 POP POP POP POP JUMP JUMPDEST PUSH4 0x4E487B71 PUSH1 0xE0 SHL PUSH1 0x0 MSTORE PUSH1 0x41 PUSH1 0x4 MSTORE PUSH1 0x24 PUSH1 0x0 REVERT JUMPDEST PUSH1 0x1 PUSH1 0x1 PUSH1 0xA0 SHL SUB DUP2 AND DUP2 EQ PUSH2 0xAE8 JUMPI PUSH1 0x0 DUP1 REVERT JUMPDEST DUP1 CALLDATALOAD PUSH2 0x116B DUP2 PUSH2 0x114B JUMP JUMPDEST SWAP2 SWAP1 POP JUMP JUMPDEST PUSH1 0x0 PUSH1 0x20 DUP1 DUP4 DUP6 SUB SLT ISZERO PUSH2 0x1183 JUMPI PUSH1 0x0 DUP1 REVERT JUMPDEST DUP3 CALLDATALOAD PUSH8 0xFFFFFFFFFFFFFFFF DUP1 DUP3 GT ISZERO PUSH2 0x119B JUMPI PUSH1 0x0 DUP1 REVERT JUMPDEST DUP2 DUP6 ADD SWAP2 POP DUP6 PUSH1 0x1F DUP4 ADD SLT PUSH2 0x11AF JUMPI PUSH1 0x0 DUP1 REVERT JUMPDEST DUP2 CALLDATALOAD DUP2 DUP2 GT ISZERO PUSH2 0x11C1 JUMPI PUSH2 0x11C1 PUSH2 0x1135 JUMP JUMPDEST DUP1 PUSH1 0x5 SHL PUSH1 0x40 MLOAD PUSH1 0x1F NOT PUSH1 0x3F DUP4 ADD AND DUP2 ADD DUP2 DUP2 LT DUP6 DUP3 GT OR ISZERO PUSH2 0x11E6 JUMPI PUSH2 0x11E6 PUSH2 0x1135 JUMP JUMPDEST PUSH1 0x40 MSTORE SWAP2 DUP3 MSTORE DUP5 DUP3 ADD SWAP3 POP DUP4 DUP2 ADD DUP6 ADD SWAP2 DUP9 DUP4 GT ISZERO PUSH2 0x1204 JUMPI PUSH1 0x0 DUP1 REVERT JUMPDEST SWAP4 DUP6 ADD SWAP4 JUMPDEST DUP3 DUP6 LT ISZERO PUSH2 0x1229 JUMPI PUSH2 0x121A DUP6 PUSH2 0x1160 JUMP JUMPDEST DUP5 MSTORE SWAP4 DUP6 ADD SWAP4 SWAP3 DUP6 ADD SWAP3 PUSH2 0x1209 JUMP JUMPDEST SWAP9 SWAP8 POP POP POP POP POP POP POP POP JUMP JUMPDEST PUSH1 0x0 DUP1 DUP4 PUSH1 0x1F DUP5 ADD SLT PUSH2 0x1247 JUMPI PUSH1 0x0 DUP1 REVERT JUMPDEST POP DUP2 CALLDATALOAD PUSH8 0xFFFFFFFFFFFFFFFF DUP2 GT ISZERO PUSH2 0x125F JUMPI PUSH1 0x0 DUP1 REVERT JUMPDEST PUSH1 0x20 DUP4 ADD SWAP2 POP DUP4 PUSH1 0x20 DUP3 DUP6 ADD ADD GT ISZERO PUSH2 0x71E JUMPI PUSH1 0x0 DUP1 REVERT JUMPDEST PUSH1 0x0 DUP1 PUSH1 0x0 DUP1 PUSH1 0x60 DUP6 DUP8 SUB SLT ISZERO PUSH2 0x128D JUMPI PUSH1 0x0 DUP1 REVERT JUMPDEST DUP5 CALLDATALOAD SWAP4 POP PUSH1 0x20 DUP6 ADD CALLDATALOAD SWAP3 POP PUSH1 0x40 DUP6 ADD CALLDATALOAD PUSH8 0xFFFFFFFFFFFFFFFF DUP2 GT ISZERO PUSH2 0x12B2 JUMPI PUSH1 0x0 DUP1 REVERT JUMPDEST PUSH2 0x12BE DUP8 DUP3 DUP9 ADD PUSH2 0x1235 JUMP JUMPDEST SWAP6 SWAP9 SWAP5 SWAP8 POP SWAP6 POP POP POP POP JUMP JUMPDEST PUSH1 0x0 PUSH1 0x20 DUP3 DUP5 SUB SLT ISZERO PUSH2 0x12DC JUMPI PUSH1 0x0 DUP1 REVERT JUMPDEST POP CALLDATALOAD SWAP2 SWAP1 POP JUMP JUMPDEST PUSH1 0x0 DUP1 PUSH1 0x40 DUP4 DUP6 SUB SLT ISZERO PUSH2 0x12F6 JUMPI PUSH1 0x0 DUP1 REVERT JUMPDEST DUP3 CALLDATALOAD SWAP2 POP PUSH1 0x20 DUP4 ADD CALLDATALOAD PUSH2 0x1308 DUP2 PUSH2 0x114B JUMP JUMPDEST DUP1 SWAP2 POP POP SWAP3 POP SWAP3 SWAP1 POP JUMP JUMPDEST PUSH1 0x0 PUSH1 0x20 DUP3 DUP5 SUB SLT ISZERO PUSH2 0x1325 JUMPI PUSH1 0x0 DUP1 REVERT JUMPDEST DUP2 CALLDATALOAD PUSH2 0x109B DUP2 PUSH2 0x114B JUMP JUMPDEST PUSH1 0x0 DUP1 PUSH1 0x20 DUP4 DUP6 SUB SLT ISZERO PUSH2 0x1343 JUMPI PUSH1 0x0 DUP1 REVERT JUMPDEST DUP3 CALLDATALOAD PUSH8 0xFFFFFFFFFFFFFFFF DUP2 GT ISZERO PUSH2 0x135A JUMPI PUSH1 0x0 DUP1 REVERT JUMPDEST PUSH2 0x1366 DUP6 DUP3 DUP7 ADD PUSH2 0x1235 JUMP JUMPDEST SWAP1 SWAP7 SWAP1 SWAP6 POP SWAP4 POP POP POP POP JUMP JUMPDEST DUP2 DUP4 MSTORE DUP2 DUP2 PUSH1 0x20 DUP6 ADD CALLDATACOPY POP PUSH1 0x0 DUP3 DUP3 ADD PUSH1 0x20 SWAP1 DUP2 ADD SWAP2 SWAP1 SWAP2 MSTORE PUSH1 0x1F SWAP1 SWAP2 ADD PUSH1 0x1F NOT AND SWAP1 SWAP2 ADD ADD SWAP1 JUMP JUMPDEST PUSH1 0x20 DUP2 MSTORE PUSH1 0x0 PUSH2 0x112D PUSH1 0x20 DUP4 ADD DUP5 DUP7 PUSH2 0x1372 JUMP JUMPDEST PUSH1 0x60 DUP2 ADD DUP2 DUP4 PUSH1 0x0 JUMPDEST PUSH1 0x3 DUP2 LT ISZERO PUSH2 0x13D7 JUMPI DUP2 MLOAD DUP4 MSTORE PUSH1 0x20 SWAP3 DUP4 ADD SWAP3 SWAP1 SWAP2 ADD SWAP1 PUSH1 0x1 ADD PUSH2 0x13B8 JUMP JUMPDEST POP POP POP SWAP3 SWAP2 POP POP JUMP JUMPDEST PUSH1 0x0 DUP1 PUSH1 0x40 DUP4 DUP6 SUB SLT ISZERO PUSH2 0x13F3 JUMPI PUSH1 0x0 DUP1 REVERT JUMPDEST POP POP DUP1 CALLDATALOAD SWAP3 PUSH1 0x20 SWAP1 SWAP2 ADD CALLDATALOAD SWAP2 POP JUMP JUMPDEST PUSH4 0x4E487B71 PUSH1 0xE0 SHL PUSH1 0x0 MSTORE PUSH1 0x32 PUSH1 0x4 MSTORE PUSH1 0x24 PUSH1 0x0 REVERT JUMPDEST PUSH1 0x20 DUP1 DUP3 MSTORE PUSH1 0x1A SWAP1 DUP3 ADD MSTORE PUSH32 0x53656E64657220686173206E6F74207065726D697373696F6E73000000000000 PUSH1 0x40 DUP3 ADD MSTORE PUSH1 0x60 ADD SWAP1 JUMP JUMPDEST PUSH4 0x4E487B71 PUSH1 0xE0 SHL PUSH1 0x0 MSTORE PUSH1 0x11 PUSH1 0x4 MSTORE PUSH1 0x24 PUSH1 0x0 REVERT JUMPDEST PUSH1 0x0 PUSH1 0x1 PUSH1 0xFF SHL DUP3 ADD PUSH2 0x147A JUMPI PUSH2 0x147A PUSH2 0x144F JUMP JUMPDEST POP PUSH1 0x0 SUB SWAP1 JUMP JUMPDEST PUSH1 0x0 PUSH1 0x20 DUP3 DUP5 SUB SLT ISZERO PUSH2 0x1493 JUMPI PUSH1 0x0 DUP1 REVERT JUMPDEST DUP2 MLOAD PUSH2 0x109B DUP2 PUSH2 0x114B JUMP JUMPDEST PUSH1 0x0 PUSH1 0x20 DUP3 DUP5 SUB SLT ISZERO PUSH2 0x14B0 JUMPI PUSH1 0x0 DUP1 REVERT JUMPDEST DUP2 MLOAD PUSH3 0xFFFFFF DUP2 AND DUP2 EQ PUSH2 0x109B JUMPI PUSH1 0x0 DUP1 REVERT JUMPDEST PUSH1 0x0 PUSH1 0x20 DUP3 DUP5 SUB SLT ISZERO PUSH2 0x14D5 JUMPI PUSH1 0x0 DUP1 REVERT JUMPDEST DUP2 MLOAD DUP1 ISZERO ISZERO DUP2 EQ PUSH2 0x109B JUMPI PUSH1 0x0 DUP1 REVERT JUMPDEST DUP4 DUP2 MSTORE DUP3 PUSH1 0x20 DUP3 ADD MSTORE PUSH1 0x60 PUSH1 0x40 DUP3 ADD MSTORE PUSH1 0x0 PUSH2 0x96C PUSH1 0x60 DUP4 ADD DUP5 PUSH2 0x10A2 JUMP JUMPDEST PUSH1 0x1 PUSH1 0x1 PUSH1 0xA0 SHL SUB DUP3 DUP2 AND DUP3 DUP3 AND SUB SWAP1 DUP1 DUP3 GT ISZERO PUSH2 0x1524 JUMPI PUSH2 0x1524 PUSH2 0x144F JUMP JUMPDEST POP SWAP3 SWAP2 POP POP JUMP JUMPDEST PUSH1 0x1 PUSH1 0x1 PUSH1 0xA0 SHL SUB DUP2 DUP2 AND DUP4 DUP3 AND ADD SWAP1 DUP1 DUP3 GT ISZERO PUSH2 0x1524 JUMPI PUSH2 0x1524 PUSH2 0x144F JUMP JUMPDEST PUSH1 0x40 DUP2 MSTORE PUSH1 0x0 PUSH2 0x155F PUSH1 0x40 DUP4 ADD DUP6 DUP8 PUSH2 0x1372 JUMP JUMPDEST SWAP1 POP PUSH1 0x1 DUP1 PUSH1 0xA0 SHL SUB DUP4 AND PUSH1 0x20 DUP4 ADD MSTORE SWAP5 SWAP4 POP POP POP POP JUMP JUMPDEST PUSH1 0x1 PUSH1 0x1 PUSH1 0xA0 SHL SUB DUP7 DUP2 AND DUP3 MSTORE DUP6 ISZERO ISZERO PUSH1 0x20 DUP4 ADD MSTORE PUSH1 0x40 DUP3 ADD DUP6 SWAP1 MSTORE DUP4 AND PUSH1 0x60 DUP3 ADD MSTORE PUSH1 0xA0 PUSH1 0x80 DUP3 ADD DUP2 SWAP1 MSTORE PUSH1 0x0 SWAP1 PUSH2 0x15B2 SWAP1 DUP4 ADD DUP5 PUSH2 0x10A2 JUMP JUMPDEST SWAP8 SWAP7 POP POP POP POP POP POP POP JUMP JUMPDEST PUSH1 0x0 DUP1 PUSH1 0x40 DUP4 DUP6 SUB SLT ISZERO PUSH2 0x15D0 JUMPI PUSH1 0x0 DUP1 REVERT JUMPDEST POP POP DUP1 MLOAD PUSH1 0x20 SWAP1 SWAP2 ADD MLOAD SWAP1 SWAP3 SWAP1 SWAP2 POP JUMP JUMPDEST DUP1 DUP3 ADD DUP1 DUP3 GT ISZERO PUSH2 0x308 JUMPI PUSH2 0x308 PUSH2 0x144F JUMP INVALID 0xF SDIV PUSH24 0x625B6F3A828F1556DE6CD4F7C7D5F4FC58549B227F1BB8CF SSTORE 0x24 PUSH17 0x6C2BA26469706673582212204A742D0A69 0x2B 0x2E PUSH11 0xE2E0E04D35FF5D6C03B062 SHR 0xAC 0xD4 PUSH11 0xC9D4054C48102550016473 PUSH16 0x6C63430008180033AF290D8680820AAD SWAP3 0x28 SSTORE RETURN SWAP12 ADDRESS PUSH1 0x97 0xB2 0xE 0x28 PUSH24 0x4D6C1AD35A20325630C3A02C0F0577625B6F3A828F1556DE PUSH13 0xD4F7C7D5F4FC58549B227F1BB8 0xCF SSTORE 0x24 PUSH17 0x6C2B000000000000000000000000000000 "
        },
        "methodIdentifiers": {
          "DEFAULT_ADMIN_ROLE()": "a217fddf",
          "buy(uint256,uint256)": "d6febde8",
          "buy(uint256,uint256,bytes)": "1efd73a5",
          "decodeData(bytes)": "447a06f5",
          "getPool()": "026b1d5f",
          "getRoleAdmin(bytes32)": "248a9ca3",
          "getRoles()": "71061398",
          "grantExecuters(address[])": "75d785b8",
          "grantRole(bytes32,address)": "2f2ff15d",
          "hasRole(bytes32,address)": "91d14854",
          "isExecuter(address)": "8881f7f2",
          "pancakeV3SwapCallback(int256,int256,bytes)": "23a69e75",
          "renounceRole(bytes32,address)": "36568abe",
          "revokeExecuters(address[])": "1235e9f7",
          "revokeRole(bytes32,address)": "d547741f",
          "sell(uint256,uint256)": "d79875eb",
          "sell(uint256,uint256,bytes)": "49a44aa1",
          "setPool(address)": "4437152a",
          "supportsInterface(bytes4)": "01ffc9a7",
          "uniswapV3SwapCallback(int256,int256,bytes)": "fa461e33"
        }
      }
    }
  }
}